:020000040800F2
:10000000600A002045010008DF1800086917000891
:10001000DD18000883070008151B00080000000019
:10002000000000000000000000000000E3180008CD
:100030008507000800000000E1180008E518000826
:100040005F0100085F0100085F0100085F01000810
:100050005F0100085F0100085F0100085F01000800
:100060005F0100085F0100085F0100085F010008F0
:100070005F0100085F0100085F0100085F010008E0
:100080005F0100085F0100085F0100085F010008D0
:100090005F0100085F0100085F0100085F010008C0
:1000A0005F0100085F0100085F0100085F010008B0
:1000B0005F0100085F0100085F0100085F010008A0
:1000C0005F0100085F0100085F0100085F01000890
:1000D0005F010008B51A00085F0100085F01000811
:1000E0005F0100085F0100085F0100085F01000870
:1000F0005F0100085F0100085F0100085F01000860
:100100005F0100085F0100085F0100085F0100084F
:100110005F0100085F010008651900085F01000821
:100120005F0100085F0100085F0100085F0100082F
:10013000DFF80CD000F06AFA00480047D92A00081E
:10014000600A00200648804706480047FEE7FEE7B1
:10015000FEE7FEE7FEE7FEE7FEE7FEE7FEE7FEE777
:100160006319000831010008202A04DB203A21FA33
:1001700002F00021704721FA02F3D040C2F12002C0
:100180009140084319467047D2B201E000F8012BB4
:10019000491EFBD270470022F6E710B513460A4607
:1001A00004461946FFF7F0FF204610BD30B505465E
:1001B0002A460B4612F8010B13F8014B08B1A04276
:1001C000F8D01CB1002802D06D1CF1E7284630BDE4
:1001D000421C10F8011B0029FBD1801A704710B592
:1001E000002200E0521C835C8C5CA34201D1002BF6
:1001F000F8D1D8B2E1B2401A10BD034611F8012B74
:1002000000F8012B002AF9D11846704730B50B468B
:10021000014600202022012409E021FA02F59D4236
:1002200005D303FA02F5491B04FA02F52844151E0A
:10023000A2F10102F1DC30BD2DE9F05F054600209E
:1002400092469B4688460646814640241BE0284647
:10025000414647462246FFF787FF53465A46C01A93
:10026000914110D311461846224600F0E1F92D1AAB
:1002700067EB01084F4622460120002100F0D8F923
:1002800017EB00094E41201EA4F10104DFDC4846B3
:1002900031462A464346BDE8F09F2DE9FE4F804691
:1002A00081EA0300C00F0C46009021F0004123F0CA
:1002B0000045B8EB0200A94105D2404621469046D0
:1002C0001C460B46024623F00040104347D0270D42
:1002D000C7F30A00C3F30A510290401A0190402864
:1002E0006BDAC3F3130040F4801B0098924620B1F0
:1002F0000023D2EB030A63EB0B0B01985946C0F1C4
:100300004002504600F094F906460D4650465946C4
:10031000019A00F09CF910EB08006141002487EA83
:10032000115284EAE7731A4340D0009A62B3019AEB
:10033000012A4FEA075215DC001B61EB02014FF066
:10034000004202EA0752CDE90042001C41F580114B
:1003500032462B4600F09CF903B0BDE8F08F4046D2
:100360002146F9E7001B61EB0201001C41F58013F7
:1003700000185B412018A2F5001747EB030140EA83
:10038000D570B6196D4111E06D084FEA360645EAA1
:10039000C0754FEA0752001B61EB0201001C41F5DA
:1003A000801149084FEA30000019514132462B466E
:1003B00003B0BDE8F04F00F05CB9009801224000A6
:1003C0000023D0EB020263EBE073009821464FEA72
:1003D000E074B8EB000061EB0401E9E783F000434F
:1003E0005BE781F0004158E72DE9FE4F81EA030405
:1003F00004F0004421F0004100944FF0000B23F082
:10040000004350EA01045ED052EA03045BD0C3F318
:100410000A54C1F30A552C44A4F2F3340194A0FB0E
:100420000254C1F3130141F48011C3F3130343F4E5
:10043000801301FB024400FB034E840A970A44EA3E
:10044000815447EA8357A4FB076802958D0A05FB90
:1004500007854FEA932C04FB0C542705029D4FEAB5
:10046000065847EA1637B5EB08056EEB070C870E02
:10047000920E47EA811742EA8312A7FB0201B6EB0C
:100480000B0164EB00042B0D43EA0C335E1844EBC4
:100490001C50DA465146E7FB0201C5F313044FEA4C
:1004A0000B3343EA14534FEA0432019C43EA060338
:1004B000A4F10C040294009CCDE900B400F0E8F82B
:1004C00003B0BDE8F08F00200146F9E72DE9F04DBB
:1004D00081EA030404F0004B21F0004514464FF07C
:1004E000000A23F0004150EA050220D054EA01023C
:1004F0001DD0C5F30A570246C5F31303C1F3130019
:10050000C1F30A5640F4801543F48013A7EB0608A4
:10051000101BD64608F2FD3873EB050002D308F134
:10052000010801E092185B41B8F1000F03DA0020E6
:100530000146BDE8F08D00204FF480110646844648
:100540000EE0171B73EB050705D3121B63EB0503C6
:1005500006434CEA010C49084FEA300092185B410F
:1005600050EA0107EDD152EA030012D082EA0400FA
:1005700083EA0501084305D0101BAB4106D20122D6
:10058000002306E000224FF0004302E06FF001027A
:1005900053101AEB06004CEB085110EB0A0041EB2C
:1005A0000B01BDE8F04D00F064B8C1F30A52C1F38D
:1005B000130140F2FF3341F480119A4202DA002025
:1005C0000146704740F233439A42A2F2334202DCC2
:1005D0005242FFF7C9BD00F02BB8000030B5041E31
:1005E00071F1000404DB4FF00044404264EB010170
:1005F000141E73F1000405DB1C464FF00043524209
:1006000063EB0403994208BF904230BD064C074D8E
:1006100006E0E06840F0010394E8070098471034D2
:10062000AC42F6D3FFF788FDD0460008F04600083C
:10063000202A04DB203A00FA02F1002070479140A2
:10064000C2F1200320FA03F3194390407047202A97
:1006500006DBCB17203A41FA02F043EAE07306E0EA
:1006600041FA02F3D040C2F12002914008431946FA
:10067000704710B5141E73F1000408DA401C41F1F4
:10068000000192185B411A4301D120F0010010BD16
:100690002DE9F04D92469B4611B1B1FA81F202E08C
:1006A000B0FA80F220329046FFF7C2FF04460F46B0
:1006B00040EA0A0041EA0B0153465A46084313D068
:1006C000114653EA010019D0C8F140025046FFF725
:1006D0004BFD05460E46504659464246FFF7A8FFD9
:1006E000084305D0012004E020463946BDE8F08DDE
:1006F0000020054346EAE0762C4337430A98630519
:10070000E40AA0EB08000022FD0A44EA47540A303C
:1007100002D500200146E9E7010510196941DDE92C
:10072000084500196941BDE8F04DA2E770B50446DF
:1007300000688168C943C90717D1816821F00101A8
:10074000816000F061FA05460AE000BF00F05CFA43
:10075000401B022804D920688068C043C00706D027
:1007600020688068C043C007F0D0002070BDA06A38
:1007700040F01000A062E06A40F00100E062012059
:1007800070BDFEE7704772B6FEE70000F8B50024C2
:10079000009490F824202546012A12D0012280F8E6
:1007A00024204A681F23072A0DD20668776B521E41
:1007B00002EB820293409F430B6893401F43776391
:1007C00019E00220F8BD06680D2A0AD2376BD21F45
:1007D00002EB820293409F430B6893401F433763B1
:1007E00009E0F76A0D3A02EB820293409F430B68DF
:1007F00093401F43F7620A68072306680A2A0AD350
:10080000F7680A3A02EB420293409F438B68934099
:100810001F43F76008E0376902EB420293409F43B1
:100820008B6893401F4337610A68102A01D0112A50
:1008300020D1124B02689A4217D193681B0219D437
:10084000936843F4000393600968102912D10C499E
:100850000C4A0968B1FBF2F101EB8101490000E0AB
:10086000491E00910029FBD104E0816A41F020017A
:100870008162012480F824502046F8BD0024014004
:100880007400002040420F002DE9F04104004FF0B9
:10089000000514D0A06A002628B9E66284F8246016
:1008A000204600F083F82046FFF740FFA16A01F0E0
:1008B0001001014304D0A06A40F01000A0626BE078
:1008C000A16A21F4885141F00201A16233492368F1
:1008D0008B42E16904D1B1F5402F01D14FF40021E1
:1008E000277B4FF4807C41EA470261680A43A16894
:1008F000614509D0012907D05FF0000194F814E0A8
:10090000BEF1010F02D00AE06146F7E7C7B1A76A5E
:1009100047F02007A762E76A47F00107E7625F68D0
:1009200027F469470F435F60236899681C4F39407B
:1009300011439960A16861450BD0012909D00CE0F1
:10094000DFF860E0A7690EEB47370F4347F400611B
:10095000E5E7218A0D05A5F580152168CB6A23F40A
:1009600070032B43CB62216889680F4B1940914279
:1009700008D1E662A16A21F0020141F00101A16201
:10098000BDE8F081A06A20F0020040F01000A062F3
:10099000E06A40F00100E0620120F1E7003C014024
:1009A000FDF7E1FF00E0FFFFFE0E1FFF00B585B081
:1009B0000021009101910291039100680E49884243
:1009C00018D10E48816941F400718161816901F497
:1009D00000710491816941F010018161806969466B
:1009E00000F01000049001200090032001900448C2
:1009F00000F008F805B000BD0024014000100240DE
:100A0000001001402DE9F84FDFF8C891002409F1EA
:100A1000040A0AF1040B23460F270BF1040ED1E060
:100A20000125A54006EA0502AA4276D1DFF8A8C151
:100A30004E68A6EB0C0866452BD00DDC032E34D097
:100A400005DC36B3012E19D0022E2FD11BE0112E5A
:100A500016D0122E2AD119E0B8F5881F19D006DC5D
:100A6000B8F5803F15D0B8F5801F1FD111E0B8F55B
:100A7000001F0ED0B8F5041F18D10AE0CB6815E0AE
:100A8000CB681B1D12E0CB6808330FE0CB680C333A
:100A90000CE08B682BB1012B4FF0080303D04561AC
:100AA00004E0042302E0056100E00023FF2A01D8EE
:100AB000064601E000F104064FEA840501D9A5F1DC
:100AC0002005D6F8008007FA05FC28EA0C0803FA8E
:100AD00005F548EA0508C6F800804D68ED0070D5B8
:100AE0003E4DAE6946F00106AE61AD6924F00306E5
:100AF00005F0010500953A4D06EB050CDCF80850B1
:100B0000A607360F07FA06F825EA0805DFF8D480AD
:100B1000404503D14FF0000825E052E0DFF8C880DF
:100B2000404502D14FF001081DE0DFF8C08040458C
:100B300002D14FF0020816E0DFF8B480404502D140
:100B40004FF003080FE0DFF8AC80404502D14FF0D2
:100B5000040808E0DFF8A080404502D14FF0050806
:100B600001E04FF0060808FA06F848EA0508CCF854
:100B700008804D68D9F80060ED034D4601D5164355
:100B800000E096432E604D68DAF80060AD035546EC
:100B900001D5164300E096432E604D68DBF80060F7
:100BA000ED025D4601D5164300E096432E604D6888
:100BB000DEF80060AD02754601D5164300E09643AD
:100BC0002E60641C0A681646E2407FF429AFBDE837
:100BD000F88F0000000401400000111000100240D6
:100BE0000000014000080140000C014000100140DD
:100BF0000014014000180140001C01400AB10161CD
:100C000070470904FBE70000014880687047000056
:100C100068000020024881680278114481607047B2
:100C200068000020074810B5016841F0100101601C
:100C3000032000F079F8002000F006F800F024F816
:100C4000002010BD0020024070B50D4D04464FF449
:100C50007A712878B1FBF0F00A490968B1FBF0F02D
:100C600000F066FB48B9102C07D200222146501E26
:100C700000F03AF800206C6070BD012070BD0000EB
:100C800068000020740000200E4808B5816941F01A
:100C900001018161816901F001010091C16941F0A7
:100CA0008051C161C06900F080500090052000F0C3
:100CB0003BF80548416821F0E06141F00071416076
:100CC00008BD00000010024000000140002809DBC0
:100CD00000F01F02012191404009800000F1E02056
:100CE000C0F8001170470000F0B40E4B1B680C46B2
:100CF000C3F30223C3F10705042D00D90425191DF0
:100D0000072901D2002300E0DB1E012606FA05F1C7
:100D1000491E214099409E40761E16403143F0BC4A
:100D200000F00CBF0CED00E0064900F00702086877
:100D30004FF6FF03184040EA0220034A10430860C0
:100D4000704700000CED00E00000FA052DE9F843C3
:100D500005460078354CC00754D0E0690026C00035
:100D600008D4E06940F08050E061E069012600F0BD
:100D7000805000902E480168C90512D40168804651
:100D800041F480710160FFF73FFF074605E000BFB7
:100D9000FFF73AFFC01B642823D8D8F80000C0052D
:100DA000F6D5206A10F4407021D0A98801F4407172
:100DB00081421CD0206A1F49012220F440700A6041
:100DC00000220A602062C00711D0FFF71DFF07460E
:100DD00041F2883808E000BFFFF716FFC11B41450C
:100DE00002D90320BDE8F883206A8007F4D5206A81
:100DF000696820F44070084320621EB1E06920F069
:100E00008050E0612878800705D56068A96820F4E3
:100E10004040084360602878C00605D5606869696D
:100E200020F48000084360600020DBE700100240EF
:100E300000700040400442422DE9F0470F46050093
:100E400061D0434E306800F00700B84209D23068E4
:100E500020F0070038433060306800F00700B842E7
:100E600051D128683B4C810712D5400703D56068F3
:100E700040F4E06060602878000703D5606840F4C3
:100E8000605060606068A96820F0F000084360600E
:100E90002878C00728D06868012810D02168022867
:100EA00010D0890700292EDA616821F0030101437F
:100EB0006160FFF7A9FE804641F288390DE02168A4
:100EC0008903EFE78901EDE7FFF79EFEA0EB08013C
:100ED000494502D90320BDE8F0876068696800F0E1
:100EE0000C00B0EB810FEFD1306800F00700B84282
:100EF0000BD9306820F0070038433060306800F0CC
:100F00000700B84201D00120E5E72878400705D561
:100F10006068E96820F4E0600843606028780007B2
:100F200006D56068296920F4605040EAC10060601D
:100F300000F038F86168084AC1F30311515CC840F9
:100F40000649086006480068FFF77EFE0020C2E7F9
:100F50000020024000100240B84600087400002043
:100F60006C0000200448054900684968044AC1F340
:100F70000221515CC84070477400002000100240FC
:100F8000C84600080448054900684968044AC1F396
:100F9000C221515CC840704774000020001002401C
:100FA000C846000812A185B00FC98DE80F0014A033
:100FB000144A006804905168134801F00C03042B94
:100FC00010D0082B0ED1C1F38343C9031DF80300D1
:100FD0000AD5516804AAC1F34041515C0A4A504302
:100FE000B0FBF1F005B0704708494843FAE700004C
:100FF00002030405060708090A0B0C0D0E0F10105A
:10100000010200000010024000127A0000093D00B9
:101010002DE9F84F040070D02078C04DC00749D0AA
:101020006868C0F38100012807D06868C0F38100B8
:10103000022809D16868C00306D52868800339D51D
:1010400060680028E7D035E06068B0F5803F0BD0DD
:1010500010B1B0F5A02F11D0286820F4803028609E
:10106000286820F4802002E0286840F4803028605E
:10107000606890B1FFF7C8FD06460AE0286840F4B2
:1010800080202860F0E700BFFFF7BEFD801B6428CA
:1010900073D828688003F7D50CE0FFF7B5FD064646
:1010A00005E000BFFFF7B0FD801B6428F0D828687A
:1010B0008003F7D420789A4E80074FF001094FF053
:1010C000000839D5686810F00C0F07D06868C0F3C5
:1010D0008100022809D16868C00306D42868800707
:1010E00014D52069012808D110E02069B0B1C6F8F4
:1010F0000090FFF789FD074605E00AE1FFF784FD50
:10110000C01B0228C4D828688007F7D52868616901
:1011100020F0F80040EAC10028600DE0C6F8008029
:10112000FFF772FD074604E0FFF76EFDC01B0228C3
:1011300023D828688007F7D4207800072CD5794871
:10114000A169D9B1C0F80090FFF75EFD074604E041
:10115000FFF75AFDC01B02280FD8686A8007F7D531
:1011600071484FF4FA510068B0FBF1F0009000BFF5
:101170000098411E0091FAD20EE080E0C0F8008095
:10118000FFF742FD074604E0FFF73EFDC01B0228C3
:1011900075D8686A8007F7D42078400760D5E86979
:1011A0000027C00008D4E86940F08050E861E86991
:1011B000012700F0805000905C480168C90513D4F5
:1011C0000168834641F480710160FFF71DFD82468E
:1011D00006E000BFFFF718FDA0EB0A0064284ED818
:1011E000DBF80000C005F5D5E06801280AD008B199
:1011F000052813D0286A20F001002862286A20F010
:10120000040002E0286A40F001002862E06841F230
:10121000883B98B1FFF7F8FC82460BE0286A40F063
:1012200004002862EEE700BFFFF7EEFCA0EB0A0126
:1012300059455AD8286A8007F6D50CE0FFF7E4FC38
:10124000824605E0FFF7E0FCA0EB0A0159454CD8C7
:10125000286A8007F6D41FB1E86920F08050E86161
:10126000E06988B36968C1F38101022944D002288A
:10127000C6F8608004D0FFF7C7FC044638E034E0CD
:10128000FFF7C2FC074604E0FFF7BEFCC01B0228C4
:101290002BD828688001F7D4206AB0F5803F05D1AB
:1012A0006868A16820F4003008436860D4E9080148
:1012B0000843696821F4741108436860C6F86090B7
:1012C000FFF7A2FC044606E025E000BFFFF79CFC08
:1012D000001B022809D828688001F7D51BE000BF51
:1012E000FFF792FC001B022802D90320BDE8F88F0B
:1012F00028688001F4D40EE00128F7D06868226ADB
:1013000000F48031914204D1616A00F47010884287
:1013100001D00120EAE70020E8E7000000100240C9
:1013200000004242800442427400002000700040ED
:1013300010B5401EB0F1807F01D3012010BD4FF0E9
:10134000E02460610F21601700F0F8FB0020A0612D
:1013500007202061002010BD7047704770B590F8DD
:101360003C20012A2CD0012480F83C40022280F845
:101370003D2003685A689D6822F070060A6832436F
:101380005A60104B02689A420ED00F4B9A420BD013
:10139000B2F1804F08D00D4B9A4205D00C4B9A42C7
:1013A00002D00C4B9A4204D1496825F080031943BE
:1013B000916080F83D40002180F83C10084670BDE7
:1013C000022070BD002C01400034014000040040A8
:1013D00000080040000C004010B5040003D094F851
:1013E0003D0010B107E0012010BD002084F83C0052
:1013F000204600F01FF8022084F83D00211D2068DF
:1014000000F0B6FA012084F8460084F83E0084F823
:101410003F0084F8400084F8410084F8420084F8DA
:10142000430084F8440084F8450084F83D0000201F
:1014300010BD000008B500680B49884212D10B4866
:10144000C16941F01001C161C069002200F01000C3
:10145000009011463620FFF747FCBDE808403620D3
:10146000FFF734BC08BD000000100040001002402F
:1014700090F83D10012901D001207047022180F829
:101480003D100168CA6842F00102CA6000680E4956
:1014900088420ED00D4988420BD0B0F1804F08D061
:1014A0000B49884205D00B49884202D00A4988423C
:1014B00004D1816801F00701062903D0016841F0D9
:1014C0000101016000207047002C01400034014000
:1014D0000004004000080040000C0040704770B558
:1014E0000446006801694FF00005C943890715D417
:1014F000C168C943890711D4E91E01610120207721
:10150000206880698007204602D0FFF7E7FF04E0EB
:1015100000F098F8204600F096F8257720680169D9
:10152000C943490717D4C168C943490713D46FF0A9
:1015300004010161022020772068806910F4407F57
:10154000204602D0FFF7CAFF04E000F07BF82046F7
:1015500000F079F8257720680169C943090716D496
:10156000C168C943090712D46FF008010161042062
:1015700020772068C0698007204602D0FFF7AEFFC1
:1015800004E000F05FF8204600F05DF82577206861
:101590000169C943C90617D4C168C943C90613D430
:1015A0006FF010010161082020772068C06910F4F5
:1015B000407F204602D0FFF791FF04E000F042F8A0
:1015C000204600F040F8257720680169C943C90723
:1015D00008D1C168C943C90704D1891E01612046E9
:1015E00000F032F820680169C943090609D4C168CE
:1015F000C943090605D46FF0800101612046FFF759
:10160000ABFE20680169C943490609D4C168C943D2
:10161000490605D46FF040010161204600F02CF826
:1016200020680169C94389060BD4C168C94389068A
:1016300007D46FF0200101612046BDE87040FFF73C
:101640008CBE70BD704770470168084881420CD15C
:10165000074A6FF001011268116106490A8842F4D5
:1016600000420A80016800210160704700100040BC
:10167000A804002064000020704770B5040004D066
:1016800094F83D00002510B106E0012070BD84F8FB
:101690003C50204600F022F8242084F83D002068C9
:1016A000C16821F40051C160204600F0A7F920680C
:1016B000016921F4904101612068416921F02A010A
:1016C00041612068C16841F40051C1602564202057
:1016D00084F83D0084F83E00002070BD70B586B0EF
:1016E00000250446009501950295039500681B4965
:1016F000884230D11A49886940F4804088618869FD
:1017000000F480400490886940F004008861886992
:10171000144E00F00400049048150090022001903F
:101720000320039069463046FFF76CF93015CDE988
:101730000005694630460295FFF764F9002211461C
:101740002520FFF7D1FA2520FFF7C0FA2068C168ED
:1017500041F02001C16006B070BD000000380140BA
:101760000010024000080140FEE700003EB50024E2
:1017700011480094019402940E498460016004733E
:101780000475012505614FF460214460C161FFF7D4
:101790007BF808B1FEF7F7FF0A20CDE9000569469E
:1017A00002940548FEF7F2FF002801D0FEF7EBFF98
:1017B0003EBD0000002401407804002070B586B0D2
:1017C000002523480095019502950395816941F014
:1017D00020018161816901F020010491816941F05A
:1017E00010018161816901F010010491816941F06A
:1017F00008018161816901F008010491816941F06A
:10180000040181618069134E00F0040004900122FC
:10181000C1213046FFF7F2F901240094CDE90145DA
:10182000694630460394FFF7EDF83A20CDE900050C
:10183000694602943046FFF7E5F8C0208DE8310094
:101840000320039069463046FFF7DCF806B070BD10
:1018500000100240000C01401CB500241048009408
:101860000E490194016041F61F41C0E901144FF493
:101870007A71C16080218161FFF7AEFD08B1FEF78A
:1018800082FF0094694606480194FFF767FD08B19E
:10189000FEF779FF0248FFF7EBFD1CBD001000408A
:1018A000A80400200C4810B50A4901604FF4E1314A
:1018B0004160002181600C22C160C0E90412816195
:1018C000C161FFF7DAFE002803D0BDE81040FEF743
:1018D0005ABF10BD00380140F0040020FEE7FEE7CB
:1018E00070477047FFF796B930B595B02821684624
:1018F000FEF751FC14210AA8FEF74DFC18210FA891
:10190000FEF749FC01210804CDE9001000250295ED
:1019100002240491CDE907404FF4E0100990684695
:10192000FFF776FB08B172B6FEE70AA90F2081E83F
:1019300031004FF48060CDE90D0502210AA8FFF7C0
:101940007BFA08B172B6FEE74FF4004011900F9495
:101950000FA8FFF7FBF9002801D072B6FEE715B01B
:1019600030BD70470148FFF7BABD0000A804002051
:10197000F0B502681C4B1D4D1D4E1E4F1E4C4FF006
:10198000804C984209D0A04207D0604505D0A842BB
:1019900003D0B04201D0B84204D122F0700E4A68A0
:1019A00042EA0E02984209D0A04207D0604505D015
:1019B000A84203D0B04201D0B84203D122F440750E
:1019C000CA682A434D6922F080022A4302608A686D
:1019D000C2620A688262984201D0A04201D10969BC
:1019E000016301214161F0BD002C01400004004071
:1019F00000080040000C00400034014070B504466F
:101A000000680169E26821F44051114301612169D4
:101A1000A0680843616908432168CA6841F20C6301
:101A20009A430243CA6020684169A26921F4407167
:101A3000114341611E492068884202D1FFF7A2FA92
:101A400001E0FFF78FFA00EBC00101EB00126068C4
:101A500064218000B2FBF0F3B3FBF1F36FF01806E2
:101A60007343B2FBF0F5B2FBF0F605EB83053223CE
:101A700003EB0515B5FBF1F5B6FBF1F605F0F00546
:101A800005EB0615B2FBF0F6B2FBF0F0B0FBF1F09F
:101A90006FF01802504306EB800003EB0010B0FB20
:101AA000F1F0216800F00F002844886070BD00004C
:101AB00000380140124810B500680068C043800635
:101AC00019D4104800684FF00002C4B20E480188D3
:101AD000090402D5028011040DD4018864290BD2B7
:101AE0000A4B5A6219B91A6842F001021A60084A90
:101AF0005454491C018010BD41F40041FAE7000034
:101B0000F004002004380140640000200010004070
:101B100034050020FEE7000037B514460846064BA2
:101B20006A46214600F0ECF804466946002000F0C1
:101B30007EFC20463EBD00002F2400080907090E48
:101B4000002804DB00F1E02080F80014704700F06A
:101B50000F0000F1E02080F8141D704702E008C873
:101B6000121F08C1002AFAD170477047002001E017
:101B700001C1121F002AFBD1704700002DE9FF5F51
:101B800082B00021DDE90430020DDDF840B00343EE
:101B900018D044F61050A2F2FF32424315141198A7
:101BA00001281FD0A5EB0B00401C5FEA000A4FF094
:101BB00000064E4FDFF83891B046504615D5CAF1B1
:101BC000000413E0119801244AA3012801D16FEA0F
:101BD0000B010298119AC0E90031C0E9024206B037
:101BE000BDE8F09FCBF10000DFE704460021404A4A
:101BF000491842EB0450CDE9001012E0E00707D08D
:101C000032463B4640464946FEF7EEFB8046894653
:101C100032463B4610461946FEF7E6FB06460F469F
:101C20006410002CEAD1DDE90401DDE90023BAF1FA
:101C3000000F06DAFEF7D8FB42464B46FEF7D4FB10
:101C400005E0FEF743FC42464B46FEF73FFC0446E8
:101C50000E460022284BFEF7C1FC03D84FF0FF30A0
:101C6000014607E00022254B20463146FEF715FBD2
:101C7000FEF79BFC102409E0002C0ADB0A2200235B
:101C8000FEF7DAFA039B30321A55641E50EA01025D
:101C9000F2D1641C039AC4F111031444119A012A6D
:101CA00003D0012208430DD10AE0084304D00020EC
:101CB0004FF0110B119072E7A3EB0B056D1E0DE0B9
:101CC0005B4504DD4FF0000205F1010504E003DA95
:101CD0004FF00002A5F10105002AECD002981199FD
:101CE000C0E90231C0E9004579E700000000144076
:101CF0000000F03F300000000000F0430000E03F33
:101D00002DE9FF4F95B09B468946064600250FE218
:101D1000252877D100242746F84A0121059400E0C0
:101D2000044316F8013F203B01FA03F01042F7D1BB
:101D300030782A2811D06FF02F033078A0F13002CC
:101D4000092A16D8059A44F0020402EB820203EB3A
:101D500042021044761C0590EFE759F8042B0592D7
:101D6000002A03DA504244F40054059044F002047F
:101D7000761C30782E2816D116F8010F44F0040492
:101D80002A280DD06FF02F023078A0F13003092BF4
:101D900009D807EB870302EB4303C718761CF3E768
:101DA00059F8047B761C30786C280FD006DC4C2860
:101DB00017D068280DD06A2814D104E0742810D0F8
:101DC0007A280FD10DE044F400140AE044F48014A2
:101DD00001E044F440147278824202D104F5801488
:101DE000761C761C307866280BD013DC582877D008
:101DF00009DC002875D04528F6D04628F4D04728BD
:101E00001AD19DE118E0632835D0642879D065287F
:101E100012D195E1702873D008DC6728F1D06928C9
:101E20006FD06E280DD06F2806D1B5E073282CD066
:101E3000752875D0782874D05A46179990476D1C2C
:101E400075E1C4F30250022809D003280DD0D9F857
:101E5000001004280DD00D6009F1040967E1D9F8DC
:101E60000010EA17C1E90052F6E7D9F800100D801A
:101E7000F2E70D70F0E719F8041B8DF80010002050
:101E80008DF80100EA46012003E059F804AB4FF059
:101E9000FF3061074FF0000102D40DE008F10101AD
:101EA0008846B9420FDA8045F8DB1AF80810002995
:101EB000F4D108E008F1010188468142FADB1AF802
:101EC00008100029F6D105985B46A0EB08072146CB
:101ED0003846179A00F094FA284400EB080507E00A
:101EE0004DE029E10DE01AF8010B5A461799904789
:101EF000B8F10108F7D25B4621463846179A13E13C
:101F000042E00A220092C4F302524FF0000A022A71
:101F100008D059F804CB032A4FEAEC710AD00DE03F
:101F200029E02AE009F1070121F00702F2E802C1E5
:101F3000914609E00FFA8CFC4FEAEC71042A03D1B8
:101F40004FFA8CFC4FEAEC71002907DA0A460021AF
:101F5000DCF1000C61EB02012D2202E0220504D528
:101F60002B228DF80420012203E0E20701D0202279
:101F7000F7E7904659E00A2102E010220DE0102117
:101F80004FF0000A00910BE010224FF0000A44F0DD
:101F900004040827009203E008224FF0000A009290
:101FA000C4F30252022A05D059F804CB0021032AB7
:101FB00008D009E009F1070121F00702F2E802C1A7
:101FC000914605E01FFA8CFC042A01D10CF0FF0CAD
:101FD0004FF00008220728D5702806D0009B83F018
:101FE000100353EA0A0305D00EE040228DF80420C6
:101FF000012208E05CEA010206D030228DF80420BC
:102000008DF8050002229046009B83F0080353EAF6
:102010000A030AD15CEA010201D1620705D5302228
:102020008DF804204FF001087F1E582804D034A0FA
:1020300003900EA802900DE036A0F9E753466046E3
:10204000009AFEF7F9F884460398825C0298401ED5
:10205000029002705CEA0100F0D1029806A9081A09
:1020600000F1200A600702D524F4803400E0012743
:10207000574502DDA7EB0A0000E0002000EB0A0153
:10208000009005984144401A0590E00306D45B4651
:102090002146179A059800F0B3F90544002706E099
:1020A00001A85A46C05D179990476D1C7F1C474593
:1020B000F6DBE0030CD55B462146179A059800F045
:1020C0009FF9054404E030205A46179990476D1C4B
:1020D0000099481E00900029F5DC08E0029802995A
:1020E0005A460078491C0291179990476D1CBAF125
:1020F0000001AAF1010AF1DC65E1000009280100F4
:10210000303132333435363738396162636465666D
:10211000000000003031323334353637383941422F
:10212000434445460000000000F058F90544761C81
:10213000307800287FF4ECAD19B02846BDE8F08F68
:10214000620700D4062709F1070222F0070CFCE819
:102150000223E14603F000485FEA080C02D00FF2C8
:10216000702C0DE05FEA045C02D50FF2682C07E0EA
:102170005FEAC47C02D00FF2602C01E0AFF2700C79
:102180004FF0FF3823F00043CDF850C065280CD045
:1021900006DC452809D046281DD047283DD13DE022
:1021A000662818D067287ED138E00021112F01DB86
:1021B000112000E0781CCDE9000106A90EA8FFF768
:1021C000DDFCDDE90F010E9A03910021009207F179
:1021D000010A04914DE04FF000400097CDE9011055
:1021E00006A90EA8FFF7CAFCDDE90F0203920E9BB9
:1021F00011990022DDF80CA00093049211B9791C0A
:1022000000EB010AB7EB0A0004D4C0F1FF3007F17C
:10221000010A0490AAEB0700019044E0012F00DAC4
:1022200001270021112F01DD112000E03846CDE902
:10223000000106A90EA8FFF7A1FCDDE90F010E9A27
:102240000391002104910092BA4621070CD403990E
:10225000514500DA8A46BAF1010F05DD009AAAF16C
:102260000101515C302908D0B84202DA10F1040FA4
:1022700006DA0121CDE9011015E0AAF10101E9E733
:10228000002805DC049901440491AAEB000102E056
:10229000411C514500DD8A460499401A401C0190BA
:1022A0004FF000400290200704D40198504501DB14
:1022B000CDF8048000208DF84F0002980DF14F07F3
:1022C000B0F1004F25D02B200E9002984FF002085D
:1022D00000280CDA404202902D200E9007E00A21DF
:1022E0000298FDF793FF3031029007F8011DB8F115
:1022F0000001A8F10108F2DC02980028EFD1791E54
:102300000E980870307800F0200040F0450007F883
:10231000020D12A8C01B00F107081498007800B144
:10232000012000EB0A01019801EBE071059841449E
:10233000401A401E0590E00306D45B462146179ADA
:10234000059800F05DF805441498007818B15A46D5
:10235000179990476D1CE00324D55B462146179AD8
:10236000059800F04DF805441CE00498002807DBB0
:10237000DDE90301884203DD0098405C179901E024
:10238000179930205A469047049805F10105401CE2
:1023900004900198401E019004D12E205A461799AE
:1023A00090476D1CBAF10001AAF1010ADDDC05E0DD
:1023B00017F8010B5A46179990476D1CB8F10001A8
:1023C000A8F10108F4DC5B462146179A0598ABE6B4
:1023D0002D0000002B000000200000002DE9F0413E
:1023E000044600251E461746880404D405E03946F5
:1023F0002020B0476D1C641EF9D52846BDE8F08149
:102400002DE9F041044600251E469046C80301D53B
:10241000302700E02027880404D505E041463846EF
:10242000B0476D1C641EF9D52846BDE8F0810A68E6
:10243000531C0B601070704710B598B044A104464F
:10244000D1E90001CDE9130143A104AB07C983E839
:10245000070044A145A2D1E90001CDE9150107CA51
:1024600007AB83E8070044A20AAB07CA83E807006A
:1024700044A00DAB07C883E807003FA010AB07C816
:1024800083E8070042A20FCA8DE80F0013A9204677
:10249000FDF7A5FEB8B104A92046FDF7A0FE00286F
:1024A00017D015A92046FDF79AFE00281CD007A9D1
:1024B0002046FDF77BFE00281CD039A13E48FDF7E1
:1024C0009CFE3EA10AE044A13B48FDF796FE49A1CF
:1024D00004E050A13848FDF790FE53A1364864301F
:1024E000FDF78BFE18B010BD57A13348FDF785FEF0
:1024F0005AA1F3E70AA92046FDF758FE28B15CA1CE
:102500002D48FDF77AFE62A1E8E70DA92046FDF708
:1025100066FE50B110A92046FDF748FE58B163A1F0
:102520002548FDF76AFE65A1D8E76BA12248FDF7B3
:1025300064FE6EA1D2E769462046FDF750FE0028F2
:10254000D0D16FA11C48FDF758FE72A1C6E700006C
:10255000415445300000000041542B43574D4F4437
:10256000453D310041542B525354000041542B43FC
:10257000574A41500000000041542B4349505354E6
:102580004152540041542B43495053454E4400009E
:1025900041542B4349504D4F44453D31000000000C
:1025A000747279696E6720636F6E6E656374696EAD
:1025B0006720574946492E0098050020574946494B
:1025C00020636F6E6E6563742073756363657373E8
:1025D00066756C6C792E00007475726E206F66667D
:1025E00020746865206C6F6F706261636B206D6F23
:1025F00064652E007475726E206F6666206C6F6F56
:10260000706261636B207375636365737366756C69
:102610006C792E0073657420696E20737461206D6F
:102620006F64652E0000000073657420696E20736E
:102630007461206D6F646520737563636573736681
:10264000756C6C792E0000006D6F64756C6520727E
:102650006573657474696E672E000000726573653A
:1026600074207375636365737366756C6C792E0083
:1026700045737461626C697368696E672054435076
:1026800020636F6E6E656374696F6E2E00000000CC
:1026900054435020636F6E6E65637420737563637B
:1026A00065737366756C6C792E000000746370201E
:1026B000636F6E6E656374696E672E00746370205D
:1026C00073657276696365206861732065737461F0
:1026D000626C69736865640073656E64696E672017
:1026E000636F6D6D616E642E00000000706C65613B
:1026F00073652073656E64206D6573736167650033
:102700007472616E73706172656E74206D6F646552
:102710002E0000007472616E73706172656E7420B9
:102720006D6F646500000000084910B50B88002239
:10273000C3F30E030B800649CA5401460448FDF753
:1027400035FD002800D0012010BD000064000020ED
:102750003405002070B5104C20684006FCD50E4EA4
:102760002B25361D35600F2000F01CF82068400630
:10277000FCD535600F2000F015F820684006FCD528
:1027800035604FF4FA7000F00DF8BDE87040142287
:1027900002A103A000F0B6B8003801404F4B000082
:1027A0004154000070B5054600244FF47A7603E0EA
:1027B000304600F004F8641CAC42F9D370BD10B58B
:1027C0004FF0E02300219A69C0EBC00404EB8014B1
:1027D00008E098698242A2EB0002114401DC01F298
:1027E000077102468C42F4D810BD000010B5C82213
:1027F00021A122A000F086F8C820FFF7D3FFC8224D
:102800001DA120A000F07EF8C820FFF7CBFFC82252
:1028100019A11FA000F076F84FF47A642046FFF764
:10282000C1FFC82214A11CA000F06CF8C820FFF75B
:10283000B9FFC82210A11BA000F064F82046FFF7E2
:10284000B1FFC8220CA11EA000F05CF82046FFF7E3
:10285000A9FFC82208A124A000F054F8C820FFF75F
:10286000A1FFC82204A124A000F04CF8BDE810404C
:10287000C820FFF797BF00004F4B00004154453080
:102880000000000041542B43574D4F44453D31005B
:1028900041542B525354000041542B4349504D5541
:1028A000583D300041542B43574A41503D227A78DD
:1028B000222C2231323334353637382200000000E2
:1028C00041542B43495053544152543D2254435098
:1028D000222C2231302E39362E3137352E3233220A
:1028E0002C3930303000000041542B4349504D4FBB
:1028F00044453D310000000041542B4349505345AD
:102900004E4400002DE9F0410F46064601461446AC
:10291000002518A000F052FA3046FFF78DFD012186
:10292000164800F074F9164E15E00A20FFF73AFF3A
:10293000308800040FD53846FFF7F6FE30B10F4857
:1029400000250321643000F062F907E001210DA0A9
:1029500000F05DF9FEE7641EE4B2E6D200203080AC
:1029600064210E48FDF717FC04B901252846BDE88F
:10297000F081000025730D0A00000000980500207A
:1029800064000020676574207468652077726F6E3C
:10299000672072657475726E0000000034050020B7
:1029A00070B50D4C0025C4F898510C48016821F011
:1029B00070410160016841F040510160C4F89C51D0
:1029C000022004F5CC74FFF7FAFE012020600220FB
:1029D000FFF7F5FE256070BD00802142000C01402C
:1029E00003480121C0F89C11C0F8981170470000FD
:1029F0000080214270B50D48016821F070410160EE
:102A0000016841F040510160094C0120C4F89C016B
:102A1000C4F89801042004F5CC74FFF7D0FE00251B
:102A200065600420FFF7CBFE256070BD000C0140FF
:102A3000008021420E4810B5016821F0704101600C
:102A4000016841F0405101600A4C0020C4F898012F
:102A5000C4F89C01042004F5CC74FFF7B0FE0120FB
:102A600020606060BDE810400420FFF7A8BE0000B1
:102A7000000C0140008021422DE9F0410646144837
:102A80000025016821F070410160016841F040516A
:102A90000160104C2F46C4F898514FF00108F0091E
:102AA000C4F89C017006060E0220FFF788FEC4F8E9
:102AB00098810220FFF783FEC4F898710220FFF787
:102AC0007EFE6D1CEDB2082DE9D3BDE8F08100005B
:102AD000000C014000802142FEF7A4F8FEF704FF3D
:102AE00000F05DF9FEF76AFEFEF7DCFEFEF73EFE43
:102AF000FEF7B2FEFFF774FF00F020F800F07BF85D
:102B00006420FFF74FFEFFF725FEFFF76FFEFEE79D
:102B100030B40021084B0A465FF0000003EBC0040C
:102B2000401CC0B262548028F8D3491CC9B208299D
:102B3000F2D330BC00F080B87800002010B54FF41C
:102B40007A70FFF72FFEAE2000F058F9202000F039
:102B500055F9102000F052F9B02000F04FF9C820CC
:102B600000F04CF9002000F049F9102000F046F97F
:102B7000402000F043F9812000F040F9FF2000F0F0
:102B80003DF9A12000F03AF9A62000F037F9A8207D
:102B900000F034F93F2000F031F9A42000F02EF9C4
:102BA000D32000F02BF9002000F028F9D52000F008
:102BB00025F9F02000F022F9D92000F01FF9222099
:102BC00000F01CF9DA2000F019F9122000F016F9D3
:102BD000DB2000F013F9202000F010F98D2000F028
:102BE0000DF9142000F00AF9AF2000F007F9BDE854
:102BF0001040FFF78DBF10B58D2000F0FFF81420B6
:102C000000F0FCF8BDE81040AF2000F0F7B870B558
:102C10000D460446FFF77CFF05EB4500F32101EB71
:102C20008000C1B20C232246012000F091F8BDE8DB
:102C3000704000F001B8000070B50E4E002400BFD7
:102C400004F1B000C0B200F0D9F8002000F0D6F8CE
:102C5000102000F0D3F8002506EBC500005D00F061
:102C6000E4F86D1CEDB2802DF6D3641CE4B2082CA0
:102C7000E6D370BD7800002010B57F2811D83F2919
:102C80000FD8CB0801F0070101248C40E1B2054CBC
:102C9000002A04EBC000C25C01D00A4300E08A4372
:102CA000C25410BD780000202DE9FF4F1D460C4690
:102CB0008946580700D0012000EBD5006908484339
:102CC000203A00F0FF0A02F0FF0B002635E00C2D41
:102CD0000FD0102D11D0182D31D11A490BEBCB008C
:102CE00001EB80004FF00008875D380609D501220E
:102CF00008E00BEB4B001449F2E7144901EB0B1011
:102D0000F0E7002221460098FFF7B6FF7806641C22
:102D1000070EE4B2A4EB0900A84205D100984C4686
:102D2000401CC0B2009006E008F1010000F0FF086E
:102D3000B8F1080FD9D3761CF6B25645C7D3BDE813
:102D4000FF8F00005C390008582E00086C33000823
:102D50002DE9F04704461F46802016460D46A0EB9D
:102D60005709C3F1400814E0A14502D20024E81934
:102D7000C5B2A84503DA00242546FFF7C9FE32781C
:102D80003B4629462046FFF78FFF04EB5700C4B2AD
:102D9000761C307820385E28E6D9BDE8F0874FF001
:102DA000E020016941F00401016140F207714161D5
:102DB000016941F005010161704700000FB40D4841
:102DC00070B5002405AA0499FEF7A6FE0948FDF790
:102DD000FFF9094980B2074B0A1D06E00D686D0630
:102DE000FCD51D5D1560641CA4B28442F6D370BC92
:102DF0005DF814FB000000200038014010B50446C7
:102E0000FFF7F8FD7820FFF737FEFFF7C9FD002038
:102E1000FFF732FEFFF7C4FD2046FFF72DFEFFF758
:102E2000BFFDBDE81040FFF705BE10B50446FFF733
:102E3000E1FD7820FFF720FEFFF7B2FD4020FFF70D
:102E40001BFEFFF7ADFD2046FFF716FEFFF7A8FDBE
:102E5000BDE81040FFF7EEBD0000000000000000DC
:102E600000000000000000003F40000000000000E3
:102E700000003000400030004000000009000BC09E
:102E80003D000BC03D00090018C024407FE02240F7
:102E900031800000180024C01B000D8032400180EA
:102EA00003801C4027401C80074000401000600049
:102EB00000000000000000000000000000001F8073
:102EC000204040200000402020401F8000000000E3
:102ED000090006001F80060009000000040004002D
:102EE0003F800400040000000010006000000000AB
:102EF00000000000040004000400040004000000BE
:102F0000000000400000000000000000002001C0A0
:102F100006003800400000001F8020402040204074
:102F20001F800000000010403FC000400000000073
:102F300018C021402240244018400000108020404A
:102F4000244024401B80000002000D0011003FC0FF
:102F5000014000003C8024402440244023800000A5
:102F60001F802440244034400380000030002000B3
:102F700027C03800200000001B802440244024404B
:102F80001B8000001C0022C0224022401F80000045
:102F900000000000084000000000000000000000E9
:102FA0000460000000000000000004000A0011009E
:102FB00020804040090009000900090009000000C4
:102FC00000004040208011000A000400180020008A
:102FD00023402400180000001F8020402740294083
:102FE0001F400000004007C039000F0001C0004032
:102FF00020403FC0244024401B8000001F80204010
:10300000204020403080000020403FC02040204031
:103010001F80000020403FC024402E4030C00000F0
:1030200020403FC024402E00300000000F001080E0
:10303000204022403380020020403FC004000400B2
:103040003FC02040204020403FC0204020400000A2
:103050000060202020203FC02000200020403FC0F2
:1030600024400B0030C0204020403FC020400040A2
:10307000004000C03FC03C0003C03C003FC0000017
:1030800020403FC00C4023003FC020001F80204054
:10309000204020401F80000020403FC024402400EA
:1030A000180000001F802140214020E01FA00000E8
:1030B00020403FC02440260019C0004018C02440D2
:1030C0002440224031800000300020403FC020409A
:1030D0003000000020003F80004000403F80200082
:1030E00020003E0001C0070038002000380007C063
:1030F0003C0007C038000000204039C0060039C03D
:10310000204000002000384007C038402000000068
:10311000304021C02640384020C0000000000000A0
:103120007FE0402040200000000070000C00038081
:10313000004000000000402040207FE00000000030
:1031400000002000400020000000000000100010DF
:1031500000100010001000100000000040000000EF
:1031600000000000000002800540054003C0004050
:1031700020003FC0044004400380000000000380A2
:103180000440044006400000000003800440244046
:103190003FC00040000003800540054003400000A0
:1031A000000004401FC0244024402000000002E032
:1031B000055005500650042020403FC00440040044
:1031C00003C000400000044027C000400000000091
:1031D00000100010041027E00000000020403FC055
:1031E0000140070004C00440204020403FC0004090
:1031F0000040000007C0040007C0040003C0000036
:10320000044007C00440040003C0004000000380E5
:103210000440044003800000041007F00450044000
:1032200003800000000003800440045007F00010F9
:10323000044007C0024004000400000000000640F3
:103240000540054004C00000000004001F80044049
:1032500000400000040007800040044007C0004018
:103260000400070004C0018006000400060001C03D
:10327000070001C006000000044006C0010006C0AF
:10328000044000000410071004E001800600040060
:103290000000044005C0064004400000000000009B
:1032A00004007BE040200000000000000000FFF070
:1032B00000000000000040207BE00400000000004F
:1032C0004000800040002000200040000210442206
:1032D000284110822FFC4200120012FFFE9212922F
:1032E00012921292FE9212FF1200000004100810B7
:1032F00010103FD0EA902A902A90AAFF7F902A903F
:103300002A902A902A902090001000000820062081
:10331000407E318000227F12490A49FE490249025B
:1033200049FE490A7F1200220002000004204320C7
:10333000307E018040004FFF485248927F12481271
:103340007F12489248924FFF4000000022101A60FE
:103350000380FFFF0A803260000022002AFF2AA8B3
:10336000FEA82AAA2AA92AFE2200000000000000C6
:10337000000000000000000000000000000000004D
:1033800000001FCC000C000000000000000008003E
:10339000300060000800300060000000022003FCE4
:1033A0001E20022003FC1E200220000000000E1838
:1033B00011043FFF10840C78000000000F001084FF
:1033C0000F3800C0077818840078000000780F8458
:1033D00010C411240E9800E400840008080068005E
:1033E000700000000000000000000000000000006D
:1033F000000007E01818200440020000000040020E
:103400002004181807E000000000000002400240FD
:1034100001800FF001800240024000000080008027
:1034200000800FF800800080008000000001000D87
:10343000000E0000000000000000000000000080FE
:103440000080008000800080008000800000000C70
:10345000000C00000000000000000000000000065A
:10346000001800600180060018002000000007F02E
:10347000080810041004080807F000000000080401
:1034800008041FFC000400040000000000000E0CF3
:1034900010141024104411840E0C000000000C18AD
:1034A00010041104110412880C700000000000E0E8
:1034B0000320042408241FFC0024000000001F989F
:1034C000108411041104108810700000000007F02F
:1034D00008881104110418880070000000001C0006
:1034E000100010FC13001C001000000000000E383B
:1034F00011441084108411440E38000000000700AD
:10350000088C10441044088807F0000000000000F8
:103510000000030C030C000000000000000000008D
:103520000001010600000000000000000000008013
:1035300001400220041008081004000002200220AC
:1035400002200220022002200220000000001004BD
:1035500008080410022001400080000000000E0056
:103560001200100C106C10800F00000003E00C180B
:1035700013E4142417C4082807D000000004003CFA
:1035800003C41C40074000E4001C000410041FFC9E
:103590001104110411040E880070000003E00C18DF
:1035A00010041004100410081C10000010041FFC6C
:1035B000100410041004080807F0000010041FFC99
:1035C0001104110417C410040818000010041FFC93
:1035D0001104110017C010000800000003E00C18CF
:1035E0001004100410441C780040000010041FFC5C
:1035F00010840080008010841FFC10040000100460
:1036000010041FFC1004100400000000000300015F
:10361000100110011FFE10001000000010041FFC1C
:10362000110403801464181C1004000010041FFC13
:103630001004000400040004000C000010041FFC2F
:103640001F0000FC1F001FFC1004000010041FFCE2
:103650000C04030000E010181FFC100007F008081D
:10366000100410041004080807F0000010041FFCE8
:1036700010841080108010800F00000007F00818E0
:1036800010241024101C080A07F2000010041FFC6C
:103690001104110011C011300E0C000400000E1CAA
:1036A00011041084108410441C380000180010000D
:1036B00010041FFC100410001800000010001FF878
:1036C00010040004000410041FF8100010001E0075
:1036D00011E0001C007013801C0010001FC0103C83
:1036E00000E01F0000E0103C1FC000001004180C98
:1036F000163401C001C01634180C100410001C0050
:10370000130400FC13041C00100000000804101C2B
:103710001064108413041C04101800000000000042
:1037200000007FFE40024002400200000000300026
:103730000C0003800060001C000300000000400239
:10374000400240027FFE0000000000000000000078
:103750002000400040004000200000000001000167
:103760000001000100010001000100010000400013
:103770004000200000000000000000000000009851
:10378000012401440144014400FC000410001FFC1A
:10379000008801040104008800700000000000702F
:1037A000008801040104010400880000000000708A
:1037B00000880104010411081FFC0004000000F847
:1037C000014401440144014400C800000000010418
:1037D00001040FFC1104110411001800000000D6B0
:1037E00001290129012901C90106000010041FFC5B
:1037F000008401000100010400FC00040000010439
:10380000190419FC0004000400000000000000037B
:1038100000010101190119FE0000000010041FFC45
:103820000024004001B4010C010400000000100459
:1038300010041FFC0004000400000000010401FC4F
:103840000104010001FC0104010000FC010401FC71
:10385000008401000100010400FC0004000000F8E5
:10386000010401040104010400F80000010101FF4A
:103870000085010401040088007000000000007051
:10388000008801040104010501FF00010104010495
:1038900001FC00840104010001800000000000CC54
:1038A00001240124012401240198000000000100EA
:1038B000010007F80104010400000000010001F804
:1038C000000400040004010801FC00040100018060
:1038D0000170000C001001600180010001F0010C7A
:1038E000003001C00030010C01F0010000000104B3
:1038F000018C00740170018C010400000101018140
:103900000171000E001801600180010000000184B7
:10391000010C013401440184010C0000000000008E
:103920000000000001003EFC4002400200000000D8
:1039300000000000FFFF0000000000000000400247
:1039400040023EFC0100000000000000000060009A
:1039500080008000400040002000200000000000A7
:103960000000000000000000000000000000000057
:103970000000000000000000000000000000000047
:103980000000000000000000000000000000000F28
:1039900080380FFE380F8038000000000000000063
:1039A0000000000000000000000001000006000010
:1039B0000C00003800003100000600000C00003848
:1039C000000030000000000000000000618000677F
:1039D000F807F980006180006180006180006180EB
:1039E0000067F807F9800061800000000000000017
:1039F000000001C0E003E0F00630080418081FFFD3
:103A0000FE040E080787F00381E0000000000000BC
:103A100001F000060C00040408060C7001F9C00057
:103A20000E00003BE000EC18070808040C18000327
:103A3000E00000000001E00007F003F818041C0893
:103A400004170807E1D003C0E00023B0003C0800E1
:103A500020080000100000000000000100003100FC
:103A6000003200001C000000000000000000000008
:103A70000000000000000000000000000000000046
:103A80000000000000000000000000007F0001FFB7
:103A9000C00780F00C001810000420000200000095
:103AA0000000002000021000040C00180780F00144
:103AB000FFC0007F000000000000000000000000C8
:103AC00000000000000000004200006600006600E8
:103AD000003C0000180003FFC0001800003C00007C
:103AE00066000066000042000000000008000008B8
:103AF0000000080000080000080001FFC0000800E6
:103B00000008000008000008000008000000000095
:103B1000000100003100003200001C000000000025
:103B20000000000000000000000000000000000095
:103B30000000000008000008000008000008000065
:103B40000800000800000800000800000800000845
:103B500000000000000000000000000038000038F5
:103B6000000038000000000000000000000000001D
:103B7000000000000000000000000000000600003F
:103B80001C000070000180000E0000380000C00022
:103B90000700001C000030000000000000000000D2
:103BA0007F8001FFE0038070060018040008040015
:103BB0000806001803807001FFE0007F800000000D
:103BC00000000000000001000801000801000803D7
:103BD000FFF807FFF80000080000080000080000D8
:103BE0000000000000000001C03802C05804009826
:103BF000040118040218040418061C1803F818011C
:103C0000E0F800000000000000000001C0E003C078
:103C1000F004000804080804080806180803F4184B
:103C200001E7F00001E000000000000000000000DB
:103C30000300000D00001100006100008108030175
:103C40000807FFF80FFFF800010800010800000056
:103C50000000000000E007FCD00608080610080677
:103C60001008061008061838060FF00607C00000F6
:103C700000000000000000003F8001FFE0038430EE
:103C8000020818041008041008041008071810038C
:103C90000FF00007C000000000000000000003C09B
:103CA000000700000600000600F80607F8061800E6
:103CB00006E0000700000600000000000000000110
:103CC000E1E003F7F0063410041808041808040CA7
:103CD00008040C0806161803F3F001C1E000000008
:103CE00000000000F80003FC30030638040208045A
:103CF00002080402080404100308F001FFC0007F5A
:103D000000000000000000000000000000000000B3
:103D100000000000703800703800703800000000AB
:103D20000000000000000000000000000000000093
:103D30000000000000000000301A00301C000000ED
:103D40000000000000000000000000000000000073
:103D50000000000800001400002200004100008064
:103D6000800100400200200400100800080000004C
:103D700000000000210000210000210000210000BF
:103D8000210000210000210000210000210000216D
:103D900000000000000000000000080008040010FF
:103DA000020020010040008080004100002200004D
:103DB000140000080000000000000003C00004C060
:103DC00000040000080038080F3808083808100000
:103DD0000C300007E00003C00000000000000000FD
:103DE0003F8000FFE0038070020F1006708804C05F
:103DF00088048308047F8802C09003012000FE40ED
:103E00000000080000180001F8003E0801C2000789
:103E1000020007E20000FE00001FC80001F80000D9
:103E20003800000804000807FFF807FFF804080836
:103E300004080804080804080806180803F4180110
:103E4000E7F00001E0000000000000003F8001FFFB
:103E5000E003807002001804000804000804000851
:103E60000400100600200780C000000004000807BE
:103E7000FFF807FFF8040008040008040008040025
:103E80001802001003807001FFE0007F8000000036
:103E900004000807FFF807FFF804080804080804EE
:103EA0000808040808043E08040008060018010079
:103EB0006000000004000807FFF807FFF804080886
:103EC000040800040800040800043E000600000680
:103ED0000000018000000000000000003F8001FFA2
:103EE000E0038070060018040008040208040208B9
:103EF0000203F00783F0000200000200040008073C
:103F0000FFF807FFF8040808000800000800000890
:103F10000000080004080807FFF807FFF80400087D
:103F20000000000000000400080400080400080766
:103F3000FFF807FFF8040008040008040008000068
:103F40000000000000000000000600000700000163
:103F500004000104000104000307FFFE07FFFC0446
:103F6000000004000004000004000807FFF807FF39
:103F7000F8040C08001800003E0004C7800503C8C0
:103F80000600F804003804001800000804000807C0
:103F9000FFF807FFF8040008000008000008000010
:103FA0000800000800000800001800006000000081
:103FB00004000807FFF807800807FC00007FC00026
:103FC00003F80007C000780007800807FFF807FF24
:103FD000F804000804000807FFF807000803C00001
:103FE00000E000003800001E000007000001C004CF
:103FF00000F007FFF8040000000000007F8001FFD0
:10400000E003807006001804000804000806001889
:1040100003003001FFE0007F80000000040008077B
:10402000FFF807FFF8040408040400040400040473
:1040300000040400060C0003F80001F0000000007A
:10404000000000007F8001FFE0038070060088040C
:1040500000880400C806003C03003E01FFE6007F24
:104060008400000004000807FFF807FFF8040808B0
:10407000040800040C00040F00040BC00610F00339
:10408000F03801E00800000800000001E0F803F04B
:1040900030063010041808041808040C08040C0832
:1040A0000206180207F00781E00000000180000608
:1040B000000004000004000004000807FFF807FFE8
:1040C000F80400080400000400000600000180005D
:1040D00004000007FFE007FFF004001800000800DC
:1040E000000800000800000800000804001007FF96
:1040F000E004000004000006000007E00007FE00E6
:10410000041FE00001F80000380001E0043E000751
:10411000C00006000004000004000007E00007FFE4
:10412000C0041FF80007C007F80007FF80043FF82D
:104130000007C004F80007000004000000000004AD
:10414000000806001807C07805F1C8003E00001FEF
:10415000800463E80780F8060018040008000000E7
:1041600004000006000007800007E008047C080047
:104170001FF80007F800180804E008070000060010
:10418000000400000000000100080600380400F8E8
:104190000403E8040F08047C0805F00807C00807BA
:1041A0000018040060000000000000000000000093
:1041B000000000000000003FFFFE2000022000027F
:1041C0002000022000022000020000000000000089
:1041D000000008000007000000C0000038000006D2
:1041E000000001C000003000000E000001000000CF
:1041F0000000000000002000022000022000022039
:1042000000022000023FFFFE00000000000000004E
:104210000000000000000000000000000008000096
:1042200010000030000020000030000010000008E6
:10423000000000000000000000000100000100007C
:104240000100000100000100000100000100000168
:10425000000001000001000001000001000000005A
:1042600000000000002000002000001000001000EE
:10427000000000000000000000000000000000003E
:104280000000000000F00019F8001B1800220800D0
:104290002608002408002410003FF8001FF8000042
:1042A0000800001800000004000007FFF80FFFF0EE
:1042B000001818001008002008002008003018001E
:1042C0001FF0000FC00000000000000007C0001F2A
:1042D000F0001830002008002008002008003C08EA
:1042E000001C100000600000000000000000000042
:1042F00007C0001FF0003818002008002008002028
:104300000804101007FFF80FFFF000001000000075
:104310000000000000000007C0001FF00012300085
:104320002218002208002208003208001E10000E89
:1043300020000000000000002000002008002008ED
:1043400001FFF803FFF806200804200804200807EE
:10435000200003000000000000000000000E000E1E
:104360006E001FF30031B10020B10020B100319187
:10437000001F13002E1E00200E003000000000045D
:10438000000807FFF80FFFF80010080020000020C9
:1043900000002008003FF8001FF80000080000009F
:1043A000000000000000002008002008002008068F
:1043B0003FF8063FF8000008000008000008000071
:1043C00000000000000000000000000003000003E7
:1043D000002001002001002003063FFE063FFC00F4
:1043E000000000000000000000000004000807FFBB
:1043F000F80FFFF8000188000300002FC00038F814
:104400000020380020080000080000000000000024
:10441000000004000804000804000807FFF80FFF6C
:10442000F80000080000080000080000000000007C
:10443000002008003FF8003FF800100800200000AE
:104440003FF8003FF8001008002000003FF8003F50
:10445000F8000008000000002008003FF8003FF8C6
:10446000001008001000002000002008003FF800A5
:104470001FF80000080000000000000007C0000F47
:10448000F000183000300800200800200800300834
:10449000001830000FF00007C0000000000000000E
:1044A0002001003FFF003FFF001011002009002005
:1044B00008002008003038001FF0000FC000000086
:1044C0000000000007C0001FF0003818002008009E
:1044D0002008002009001011001FFF003FFF00000E
:1044E00001000000002008002008002008003FF81C
:1044F000003FF80008080010080020080020000015
:104500003000003000000000000000000000000C3F
:1045100078001E18003308002308002108002188B5
:104520000021980030F0003860000000000000001A
:10453000200000200000200000FFF003FFF8002012
:1045400008002008002008000030000000000000E3
:10455000000000002000003FF0007FF8000018007D
:104560000008000008002010003FF8007FF0000065
:1045700010000000000000002000003000003C009F
:10458000003F800023F000007800007000238000CE
:104590003C00003000002000002000003C00003FF4
:1045A000E00023F80000E0002700003E00003FE0AC
:1045B0000021F80001E0003E0000200000000000A3
:1045C0002008002008003838003E680027800003DB
:1045D000C8002CF80038380020180020080000001F
:1045E000000000002000003003003C01003F830079
:1045F00023EC000070002380003C0000200000201D
:104600000000000000000000000000380800203812
:104610000020F80023E8002F88003E08003808003A
:1046200020180000700000000000000000000000E2
:10463000000000000000000008000014001FF7FC4C
:104640003000062000020000000000000000000012
:104650000000000000000000000000000000FFFF5C
:10466000FF0000000000000000000000000000004B
:104670000000000000002000023000061FF7FC00D0
:10468000140000080000000000000000000000000E
:104690000000000000000018000060000040000062
:1046A000400000200000100000080000040000048A
:1046B00000000C00001000000000000000000000DE
:1046C00001020304060708090000000001020304B8
:1046D000F046000800000020780000005C1B000885
:1046E0006847000878000020E80900006C1B0008FB
:1046F0004154000000000000000000000000000025
:1047000000000000000000000000000000000000A9
:104710000000000000000000000000000000000099
:104720000000000000000000000000000000000089
:104730000000000000000000000000000000000079
:104740000000000000000000000000000000000069
:104750000000000000000000010000001000000048
:08476000000000000024F40039
:0400000508000131BD
:00000001FF
