:020000040800F2
:10000000D008002045010008DF1600086915000827
:10001000DD16000807020008B919000800000000FA
:10002000000000000000000000000000E3160008CF
:100030000902000800000000E1160008E5160008AB
:100040005F0100085F0100085F0100085F01000810
:100050005F0100085F0100085F0100085F01000800
:100060005F0100085F0100085F0100085F010008F0
:100070005F0100085F0100085F0100085F010008E0
:100080005F0100085F0100085F0100085F010008D0
:100090005F0100085F0100085F0100085F010008C0
:1000A0005F0100085F0100085F0100085F010008B0
:1000B0005F0100085F0100085F0100085F010008A0
:1000C0005F0100085F0100085F0100085F01000890
:1000D0005F010008AD1900085F0100085F0100081A
:1000E0005F0100085F0100085F0100085F01000870
:1000F0005F0100085F0100085F0100085F01000860
:100100005F0100085F0100085F0100085F0100084F
:100110005F0100085F010008651700085F01000823
:100120005F0100085F0100085F0100085F0100082F
:10013000DFF80CD000F02AF800480047791B0008CF
:10014000D00800200648804706480047FEE7FEE743
:10015000FEE7FEE7FEE7FEE7FEE7FEE7FEE7FEE777
:100160006317000831010008D2B201E000F8012B4A
:10017000491EFBD270470022F6E710B513460A4627
:1001800004461946FFF7F0FF204610BD064C074D08
:1001900006E0E06840F0010394E807009847103457
:1001A000AC42F6D3FFF7C8FF143700083437000815
:1001B00070B5044600688168C943C90717D18168D2
:1001C00021F00101816000F01DFB05460AE000BF3F
:1001D00000F018FB401B022804D920688068C04347
:1001E000C00706D020688068C043C007F0D0002058
:1001F00070BDA06A40F01000A062E06A40F001000B
:10020000E062012070BDFEE7704772B6FEE70000B5
:10021000F8B50024009490F824202546012A12D035
:10022000012280F824204A681F23072A0DD206687D
:10023000776B521E02EB820293409F430B68934000
:100240001F43776319E00220F8BD06680D2A0AD221
:10025000376BD21F02EB820293409F430B6893409F
:100260001F43376309E0F76A0D3A02EB82029340BD
:100270009F430B6893401F43F7620A680723066891
:100280000A2A0AD3F7680A3A02EB420293409F43D4
:100290008B6893401F43F76008E0376902EB420226
:1002A00093409F438B6893401F4337610A68102A2D
:1002B00001D0112A20D1124B02689A4217D19368BB
:1002C0001B0219D4936843F4000393600968102952
:1002D00012D10C490C4A0968B1FBF2F101EB810122
:1002E000490000E0491E00910029FBD104E0816A29
:1002F00041F020018162012480F824502046F8BD9D
:10030000002401401000002040420F002DE9F04180
:1003100004004FF0000514D0A06A002628B9E66258
:1003200084F82460204600F083F82046FFF740FF61
:10033000A16A01F01001014304D0A06A40F010004E
:10034000A0626BE0A16A21F4885141F00201A16230
:10035000334923688B42E16904D1B1F5402F01D1C3
:100360004FF40021277B4FF4807C41EA470261680B
:100370000A43A168614509D0012907D05FF0000157
:1003800094F814E0BEF1010F02D00AE06146F7E7ED
:10039000C7B1A76A47F02007A762E76A47F00107DD
:1003A000E7625F6827F469470F435F6023689968D5
:1003B0001C4F394011439960A16861450BD0012958
:1003C00009D00CE0DFF860E0A7690EEB47370F4378
:1003D00047F40061E5E7218A0D05A5F58015216840
:1003E000CB6A23F470032B43CB62216889680F4BDF
:1003F0001940914208D1E662A16A21F0020141F060
:100400000101A162BDE8F081A06A20F0020040F085
:100410001000A062E06A40F00100E0620120F1E714
:10042000003C0140FDF7E1FF00E0FFFFFE0E1FFF73
:1004300000B585B0002100910191029103910068FF
:100440000E49884218D10E48816941F400718161DA
:10045000816901F400710491816941F010018161A9
:100460008069694600F0100004900120009003208C
:100470000190044800F0C4F805B000BD002401401C
:10048000001002400010014010B590F82110002229
:10049000022905D00421816380F82020012010BDAD
:1004A00001680B6823F00E030B6001680B6823F0F2
:1004B00001030B6090F84030C46B012101FA03F393
:1004C000636080F8211080F82020104610BD0000E5
:1004D0002DE9F05F90F821100024022903D00421B7
:1004E0008163012485E001680A6822F00E020A6037
:1004F00001680A6822F001020A603F4E3E4FB215C1
:10050000DFF8F4C0DFF8F090DFF8ECA0DFF8E8B037
:10051000DFF8E4E00168783F13011502ACF1640CE8
:10052000A9F15009AAF13C0AABF1280BAEF1140E67
:100530004FF48018B14227D9B9420ED0614512D08C
:1005400049451DD0514518D0594518D0714501D1A4
:10055000424615E0294EB14201D1012210E0274E5A
:100560001436B14201D110220AE0244E2836B1429D
:1005700006D0224A3C32914201D11A4600E02A4676
:100580001E49091F0A602BE0B94213D0614517D0FC
:10059000494522D051451DD059451DD0714501D145
:1005A00042461AE0B14202D14FF0807215E0134E7C
:1005B000B14201D1012210E0104E1436B14201D1F6
:1005C00010220AE00D4E2836B14206D00B4A3C32CA
:1005D000914201D11A4600E02A46074980394A6013
:1005E000012180F82110002180F82010416B01B119
:1005F00088472046BDE8F09F800002400804024082
:100600002DE9F84FDFF8C891002409F1040A0AF136
:10061000040B23460F270BF1040ED1E00125A54062
:1006200006EA0502AA4276D1DFF8A8C14E68A6EB19
:100630000C0866452BD00DDC032E34D005DC36B318
:10064000012E19D0022E2FD11BE0112E16D0122E02
:100650002AD119E0B8F5881F19D006DCB8F5803F1B
:1006600015D0B8F5801F1FD111E0B8F5001F0ED0CE
:10067000B8F5041F18D10AE0CB6815E0CB681B1D44
:1006800012E0CB6808330FE0CB680C330CE08B68CA
:100690002BB1012B4FF0080303D0456104E0042384
:1006A00002E0056100E00023FF2A01D8064601E0D0
:1006B00000F104064FEA840501D9A5F12005D6F81A
:1006C000008007FA05FC28EA0C0803FA05F548EA59
:1006D0000508C6F800804D68ED0070D53E4DAE6946
:1006E00046F00106AE61AD6924F0030605F0010590
:1006F00000953A4D06EB050CDCF80850A607360FBE
:1007000007FA06F825EA0805DFF8D480404503D14A
:100710004FF0000825E052E0DFF8C880404502D1E4
:100720004FF001081DE0DFF8C080404502D14FF0D6
:10073000020816E0DFF8B480404502D14FF003080C
:100740000FE0DFF8AC80404502D14FF0040808E02C
:10075000DFF8A080404502D14FF0050801E04FF0DE
:10076000060808FA06F848EA0508CCF808804D683B
:10077000D9F80060ED034D4601D5164300E09643DD
:100780002E604D68DAF80060AD03554601D516437A
:1007900000E096432E604D68DBF80060ED025D4698
:1007A00001D5164300E096432E604D68DEF80060E8
:1007B000AD02754601D5164300E096432E60641CD9
:1007C0000A681646E2407FF429AFBDE8F88F0000C2
:1007D0000004014000001110001002400000014020
:1007E00000080140000C01400010014000140140CD
:1007F00000180140001C01400AB101617047090462
:10080000FBE70000014880687047000004000020FA
:10081000024881680278114481607047040000201A
:10082000074810B5016841F010010160032000F095
:1008300079F8002000F006F800F024F8002010BD40
:100840000020024070B50D4D04464FF47A712878AF
:10085000B1FBF0F00A490968B1FBF0F000F066FB6B
:1008600048B9102C07D200222146501E00F03AF859
:1008700000206C6070BD012070BD000004000020ED
:10088000100000200E4808B5816941F00101816126
:10089000816901F001010091C16941F08051C1619C
:1008A000C06900F080500090052000F03BF805483A
:1008B000416821F0E06141F00071416008BD000035
:1008C0000010024000000140002809DB00F01F0278
:1008D000012191404009800000F1E020C0F80011A2
:1008E00070470000F0B40E4B1B680C46C3F30223A4
:1008F000C3F10705042D00D90425191D072901D2CC
:10090000002300E0DB1E012606FA05F1491E214006
:1009100099409E40761E16403143F0BC01F04DB820
:100920000CED00E0064900F0070208684FF6FF03EF
:10093000184040EA0220034A104308607047000054
:100940000CED00E00000FA052DE9F84305460078BB
:10095000354CC00754D0E0690026C00008D4E069D7
:1009600040F08050E061E069012600F08050009086
:100970002E480168C90512D40168804641F480718F
:100980000160FFF73FFF074605E000BFFFF73AFFB2
:10099000C01B642823D8D8F80000C005F6D5206A0B
:1009A00010F4407021D0A98801F4407181421CD01C
:1009B000206A1F49012220F440700A6000220A6068
:1009C0002062C00711D0FFF71DFF074641F28838AB
:1009D00008E000BFFFF716FFC11B414502D9032005
:1009E000BDE8F883206A8007F4D5206A696820F49E
:1009F0004070084320621EB1E06920F08050E06141
:100A00002878800705D56068A96820F4404008432D
:100A100060602878C00605D56068696920F48000A8
:100A2000084360600020DBE70010024000700040D7
:100A3000400442422DE9F0470F46050061D0434E85
:100A4000306800F00700B84209D2306820F0070093
:100A500038433060306800F00700B84251D1286850
:100A60003B4C810712D5400703D5606840F4E06035
:100A700060602878000703D5606840F460506060CB
:100A80006068A96820F0F000084360602878C0071B
:100A900028D06868012810D02168022810D0890762
:100AA00000292EDA616821F0030101436160FFF73C
:100AB000A9FE804641F288390DE021688903EFE7FD
:100AC0008901EDE7FFF79EFEA0EB0801494502D939
:100AD0000320BDE8F0876068696800F00C00B0EBA7
:100AE000810FEFD1306800F00700B8420BD93068B1
:100AF00020F0070038433060306800F00700B8424B
:100B000001D00120E5E72878400705D56068E9684D
:100B100020F4E060084360602878000706D560682C
:100B2000296920F4605040EAC100606000F038F8A4
:100B30006168084AC1F30311515CC8400649086066
:100B400006480068FFF77EFE0020C2E70020024052
:100B500000100240FA3600081000002008000020B3
:100B60000448054900684968044AC1F30221515C00
:100B7000C840704710000020001002400A370008EB
:100B80000448054900684968044AC1F3C221515C20
:100B9000C840704710000020001002400A370008CB
:100BA00012A185B00FC98DE80F0014A0144A006887
:100BB00004905168134801F00C03042B10D0082B4B
:100BC0000ED1C1F38343C9031DF803000AD5516850
:100BD00004AAC1F34041515C0A4A5043B0FBF1F012
:100BE00005B0704708494843FAE7000002030405CE
:100BF000060708090A0B0C0D0E0F10100102000069
:100C00000010024000127A0000093D002DE9F84F63
:100C1000040070D02078C04DC00749D06868C0F388
:100C20008100012807D06868C0F38100022809D13B
:100C30006868C00306D52868800339D56068002835
:100C4000E7D035E06068B0F5803F0BD010B1B0F56B
:100C5000A02F11D0286820F480302860286820F464
:100C6000802002E0286840F480302860606890B1FD
:100C7000FFF7C8FD06460AE0286840F48020286097
:100C8000F0E700BFFFF7BEFD801B642873D828681B
:100C90008003F7D50CE0FFF7B5FD064605E000BF81
:100CA000FFF7B0FD801B6428F0D828688003F7D4D4
:100CB00020789A4E80074FF001094FF0000839D58F
:100CC000686810F00C0F07D06868C0F38100022834
:100CD00009D16868C00306D42868800714D5206944
:100CE000012808D110E02069B0B1C6F80090FFF7E4
:100CF00089FD074605E00AE1FFF784FDC01B0228D5
:100D0000C4D828688007F7D52868616920F0F80002
:100D100040EAC10028600DE0C6F80080FFF772FDD0
:100D2000074604E0FFF76EFDC01B022823D82868A1
:100D30008007F7D4207800072CD57948A169D9B16C
:100D4000C0F80090FFF75EFD074604E0FFF75AFD8C
:100D5000C01B02280FD8686A8007F7D571484FF486
:100D6000FA510068B0FBF1F0009000BF0098411EFE
:100D70000091FAD20EE080E0C0F80080FFF742FD5B
:100D8000074604E0FFF73EFDC01B022875D8686ADD
:100D90008007F7D42078400760D5E8690027C000B5
:100DA00008D4E86940F08050E861E869012700F064
:100DB000805000905C480168C90513D401688346DF
:100DC00041F480710160FFF71DFD824606E000BF1F
:100DD000FFF718FDA0EB0A0064284ED8DBF80000EE
:100DE000C005F5D5E06801280AD008B1052813D060
:100DF000286A20F001002862286A20F0040002E03E
:100E0000286A40F001002862E06841F2883B98B10E
:100E1000FFF7F8FC82460BE0286A40F004002862E5
:100E2000EEE700BFFFF7EEFCA0EB0A0159455AD8E8
:100E3000286A8007F6D50CE0FFF7E4FC824605E05F
:100E4000FFF7E0FCA0EB0A0159454CD8286A80075F
:100E5000F6D41FB1E86920F08050E861E06988B3FA
:100E60006968C1F38101022944D00228C6F8608074
:100E700004D0FFF7C7FC044638E034E0FFF7C2FCBB
:100E8000074604E0FFF7BEFCC01B02282BD82868E9
:100E90008001F7D4206AB0F5803F05D16868A16869
:100EA00020F4003008436860D4E908010843696809
:100EB00021F4741108436860C6F86090FFF7A2FC43
:100EC000044606E025E000BFFFF79CFC001B02285B
:100ED00009D828688001F7D51BE000BFFFF792FC16
:100EE000001B022802D90320BDE8F88F2868800182
:100EF000F4D40EE00128F7D06868226A00F480314B
:100F0000914204D1616A00F47010884201D001203E
:100F1000EAE70020E8E7000000100240000042423B
:100F200080044242100000200070004010B5401EB6
:100F3000B0F1807F01D3012010BD4FF0E02460614B
:100F40000F21601700F039FD0020A061072020610B
:100F5000002010BD7047704770B590F83C20012A02
:100F60002CD0012480F83C40022280F83D20036808
:100F70005A689D6822F070060A6832435A60104B26
:100F800002689A420ED00F4B9A420BD0B2F1804FBA
:100F900008D00D4B9A4205D00C4B9A4202D00C4B14
:100FA0009A4204D1496825F080031943916080F882
:100FB0003D40002180F83C10084670BD022070BD05
:100FC000002C0140003401400004004000080040B3
:100FD000000C004010B5040003D094F83D0010B19F
:100FE00007E0012010BD002084F83C00204600F0FE
:100FF0001FF8022084F83D00211D206800F0B8FB96
:10100000012084F8460084F83E0084F83F0084F80C
:10101000400084F8410084F8420084F8430084F8DA
:10102000440084F8450084F83D00002010BD000015
:1010300008B500680B49884212D10B48C16941F0DC
:101040001001C161C069002200F01000009011463B
:101050003620FFF747FCBDE808403620FFF734BCD8
:1010600008BD0000001000400010024090F83D1044
:10107000012901D001207047022180F83D1001684C
:10108000CA6842F00102CA6000680E4988420ED068
:101090000D4988420BD0B0F1804F08D00B498842EF
:1010A00005D00B49884202D00A49884204D18168A0
:1010B00001F00701062903D0016841F00101016038
:1010C00000207047002C0140003401400004004023
:1010D00000080040000C0040704770B504460068EE
:1010E00001694FF00005C943890715D4C168C94398
:1010F000890711D4E91E01610120207720688069E9
:101100008007204602D0FFF7E7FF04E000F098F8E0
:10111000204600F096F8257720680169C943490701
:1011200017D4C168C943490713D46FF004010161A2
:10113000022020772068806910F4407F204602D08A
:10114000FFF7CAFF04E000F07BF8204600F079F8D2
:10115000257720680169C943090716D4C168C943C6
:10116000090712D46FF0080101610420207720687C
:10117000C0698007204602D0FFF7AEFF04E000F010
:101180005FF8204600F05DF8257720680169C943C3
:10119000C90617D4C168C943C90613D46FF010013A
:1011A0000161082020772068C06910F4407F204644
:1011B00002D0FFF791FF04E000F042F8204600F073
:1011C00040F8257720680169C943C90708D1C1687B
:1011D000C943C90704D1891E0161204600F032F8D5
:1011E00020680169C943090609D4C168C9430906D1
:1011F00005D46FF0800101612046FFF7ABFE206847
:101200000169C943490609D4C168C943490605D4DF
:101210006FF040010161204600F028F82068016964
:10122000C94389060BD4C168C943890607D46FF046
:10123000200101612046BDE87040FFF78CBE70BD03
:101240007047704700680649884208D10548016820
:10125000491C016004496FF001000968086170478A
:101260000010004000000020440400207047704738
:1012700070470000F8B5026804461068D1685369E9
:1012800010F00F0F4FF0000554D003F0010601F4E9
:10129000907737435FD0C20705D0CA0503D5226CCB
:1012A00042F001022264420705D5DA0703D0226C1E
:1012B00042F002022264820705D5DA0703D0226CCD
:1012C00042F004022264020707D501F020023243F3
:1012D00003D0226C42F008022264226C002A35D02E
:1012E000800604D5880602D5204600F0A7FA2068BB
:1012F0004069216CC0F3801001F0080101432046D1
:1013000025D000F083FA2068416949061BD5416960
:1013100021F040014161A06BA8B158494163A06B25
:10132000FFF7D6F8002811D0A06B416B01B0BDE8E3
:10133000F040084783060ED58B060CD52046BDE845
:10134000F84000F07BBA2046FFF792FFF8BDFFF7A8
:101350008FFF2564F8BD266B2023012E52D1C606CF
:1013600050D5CE064ED510685068009050694006A2
:101370002AD5A16B086840680004000CEAD0A68D4D
:101380008642E7D9E0858869202818D0D06820F403
:101390008070D0602068416921F0010141612068BE
:1013A000416921F04001416184F83E3025632068A5
:1013B000C16821F01001C160A06BFFF765F8A08D36
:1013C000E18D401A81B219E0A08DE18D401A81B201
:1013D000E08D0028BED00029BCD0D06820F49070E9
:1013E000D0602068426922F00102426184F83E30F8
:1013F00025632068C26822F01002C2602046FFF711
:1014000036FFF8BD05062BD50D0629D594F83D000D
:101410002128F6D1A068B0F5805F01D12069B0B174
:10142000206A411C2162216800784860E08C401EDF
:101430000004000CE084E4D12068C16821F0800140
:10144000C1602068C16841F04001C160F8BD206AF8
:101450000088C0F308005060206A801C2062E5E725
:101460004006F3D54806F1D5D168204621F0400169
:10147000D16084F83D3000F076F8F8BDFD17000823
:1014800070B5040004D094F83D00002510B106E0CA
:10149000012070BD84F83C50204600F023F8242041
:1014A00084F83D002068C16821F40051C1602046E5
:1014B00000F020FA2068016921F490410161206860
:1014C000416921F02A0141612068C16841F400515D
:1014D000C1602564202084F83D0084F83E0000208F
:1014E00070BD000030B585B00024009401940294D2
:1014F00003940068184988422CD11848816941F446
:1015000080418161816901F480410491816941F0E8
:10151000040181618069124D00F0040004904FF4D1
:101520000070009002200190032003906946284635
:10153000FFF766F82815CDE90004694628460294AD
:10154000FFF75EF8002211462520FFF7CBF9252092
:10155000FFF7BAF905B030BD003801400010024075
:101560000008014070477047FEE700003EB50024C8
:1015700011480094019402940E4984600160047340
:101580000475012505614FF460214460C161FEF7D7
:10159000BDFE08B1FEF739FE0A20CDE90005694617
:1015A00002940548FEF734FE002801D0FEF72DFE18
:1015B0003EBD0000002401401404002070B586B038
:1015C000002523480095019502950395816941F016
:1015D00020018161816901F020010491816941F05C
:1015E00010018161816901F010010491816941F06C
:1015F00008018161816901F008010491816941F06C
:10160000040181618069134E00F0040004900122FE
:10161000C1213046FFF7F0F801240094CDE90145DF
:10162000694630460394FEF7EBFF3A20CDE900050A
:10163000694602943046FEF7E3FFC0208DE8310092
:101640000320039069463046FEF7DAFF06B070BD0E
:1016500000100240000C01401CB50024104800940A
:101660000E490194016041F61F41C0E901144FF495
:101670007A71C16080218161FFF7ACFC08B1FEF78F
:10168000C4FD0094694606480194FFF765FC08B163
:10169000FEF7BBFD0248FFF7E9FC1CBD001000404F
:1016A000440400200C4810B50A4901604FF4E131B0
:1016B0004160002181600C22C160C0E90412816197
:1016C000C161FFF7DDFE002803D0BDE81040FEF742
:1016D0009CBD10BD003801408C040020FEE7FEE7F1
:1016E00070477047FFF794B830B595B02821684629
:1016F000FEF741FD14210AA8FEF73DFD18210FA8B1
:10170000FEF739FD01210804CDE9001000250295FE
:1017100002240491CDE907404FF4E0100990684697
:10172000FFF774FA08B172B6FEE70AA90F2081E844
:1017300031004FF48060CDE90D0502210AA8FFF7C2
:1017400079F908B172B6FEE74FF4004011900F949A
:101750000FA8FFF7F9F8002801D072B6FEE715B020
:1017600030BD70470148FFF7B8BC000044040020BA
:10177000F0B502681C4B1D4D1D4E1E4F1E4C4FF008
:10178000804C984209D0A04207D0604505D0A842BD
:1017900003D0B04201D0B84204D122F0700E4A68A2
:1017A00042EA0E02984209D0A04207D0604505D017
:1017B000A84203D0B04201D0B84203D122F4407510
:1017C000CA682A434D6922F080022A4302608A686F
:1017D000C2620A688262984201D0A04201D10969BE
:1017E000016301214161F0BD002C01400004004073
:1017F00000080040000C00400034014010B5406A71
:101800000021C185C184FFF733FD10BD0168CA689E
:1018100022F49072CA6001684A6922F001024A61AA
:10182000016B012904D10168CA6822F01002CA6064
:10183000202180F83E1000210163704708B590F820
:101840003E10222901D0022008BD82684FF4805347
:101850009A4201D1016921B1816A9A421BD04AB1F1
:101860000AE00268816A5268C2F308020A80816A4B
:10187000891C08E0026972B10268526802F07F02B6
:101880000A70816A491C8162C18D491E0904090CD4
:10189000C18503D019E002685268F1E70168CA689F
:1018A00022F02002CA600168CA6822F48072CA600D
:1018B00001684A6922F001024A61202180F83E1045
:1018C000016B012903D0FFF74DFE002008BD002168
:1018D00001630168CA6822F01002CA6001680A68E0
:1018E000D20602D50A6849680091818DFFF7BFFCD6
:1018F000EBE7000070B5044600680169E26821F476
:101900004051114301612169A0680843616908439E
:101910002168CA6841F20C639A430243CA60206896
:101920004169A26921F44071114341611E49206857
:10193000884202D1FFF724F901E0FFF711F900EB2B
:10194000C00101EB0012606864218000B2FBF0F37B
:10195000B3FBF1F36FF018067343B2FBF0F5B2FB83
:10196000F0F605EB8305322303EB0515B5FBF1F526
:10197000B6FBF1F605F0F00505EB0615B2FBF0F647
:10198000B2FBF0F0B0FBF1F06FF01802504306EB41
:10199000800003EB0010B0FBF1F0216800F00F00B5
:1019A0002844886070BD0000003801400148FFF7FE
:1019B00061BC00008C040020FEE70907090E002826
:1019C00004DB00F1E02080F80014704700F00F0005
:1019D00000F1E02080F8141D704702E008C8121FD3
:1019E00008C1002AFAD170477047002001E001C108
:1019F000121F002AFBD1704770B5054600244FF432
:101A00007A7603E0304600F004F8641CAC42F9D367
:101A100070BD10B54FF0E02300219A69C0EBC004FF
:101A200004EB801408E098698242A2EB00021144A2
:101A300001DC01F2077102468C42F4D810BD0000AF
:101A400070B50D4C0025C4F898510C48016821F080
:101A500070410160016841F040510160C4F89C513F
:101A6000022004F5CC74FFF7D4FF0120206002208F
:101A7000FFF7CFFF256070BD00802142000C0140C0
:101A800003480121C0F89C11C0F89811704700006C
:101A90000080214270B50D48016821F0704101605D
:101AA000016841F040510160094C0120C4F89C01DB
:101AB000C4F89801042004F5CC74FFF7AAFF0025B0
:101AC00065600420FFF7A5FF256070BD000C014094
:101AD000008021420E4810B5016821F0704101607C
:101AE000016841F0405101600A4C0020C4F898019F
:101AF000C4F89C01042004F5CC74FFF78AFF012090
:101B000020606060BDE810400420FFF782BF000045
:101B1000000C0140008021422DE9F04106461448A6
:101B20000025016821F070410160016841F04051D9
:101B30000160104C2F46C4F898514FF00108F0098D
:101B4000C4F89C017006060E0220FFF762FFC4F87D
:101B500098810220FFF75DFFC4F898710220FFF71B
:101B600058FF6D1CEDB2082DE9D3BDE8F0810000EF
:101B7000000C014000802142FEF752FEFFF7B4FD49
:101B800000F04FF9FFF71AFDFFF78CFDFFF7EEFCB1
:101B9000FFF762FDFFF774FF00F026F800F081F810
:101BA0006420FFF729FF102303A20A210F2000F071
:101BB00011F900F083F8FEE73132330030B4002130
:101BC000084B0A465FF0000003EBC004401CC0B2A3
:101BD00062548028F8D3491CC9B20829F2D330BC1A
:101BE00000F06CB81400002010B54FF47A70FFF7C5
:101BF00003FFAE2000F023F9202000F020F9102090
:101C000000F01DF9B02000F01AF9C82000F017F913
:101C1000002000F014F9102000F011F9402000F02D
:101C20000EF9812000F00BF9FF2000F008F9A12047
:101C300000F005F9A62000F002F9A82000F0FFF856
:101C40003F2000F0FCF8A42000F0F9F8D32000F0C9
:101C5000F6F8002000F0F3F8D52000F0F0F8F020BE
:101C600000F0EDF8D92000F0EAF8222000F0E7F8C3
:101C7000DA2000F0E4F8122000F0E1F8DB2000F0B8
:101C8000DEF8202000F0DBF88D2000F0D8F81420DA
:101C900000F0D5F8AF2000F0D2F8BDE81040FFF713
:101CA0008DBF10B58D2000F0CAF8142000F0C7F8E1
:101CB000BDE81040AF2000F0C2B8000070B50E4E75
:101CC000002400BF04F1B000C0B200F0B8F800205A
:101CD00000F0B5F8102000F0B2F8002506EBC500C2
:101CE000005D00F0C3F86D1CEDB2802DF6D3641CCE
:101CF000E4B2082CE6D370BD1400002010B57F2894
:101D000011D83F290FD8CB0801F0070101248C40DE
:101D1000E1B2054C002A04EBC000C25C01D00A43CA
:101D200000E08A43C25410BD140000202DE9FF4F8B
:101D30001D460C468946580700D0012000EBD5000F
:101D400069084843203A00F0FF0A02F0FF0B002622
:101D500035E00C2D0FD0102D11D0182D31D11A498E
:101D60000BEBCB0001EB80004FF00008875D3806DD
:101D700009D5012208E00BEB4B001449F2E71449A6
:101D800001EB0B10F0E7002221460098FFF7B6FFA9
:101D90007806641C070EE4B2A4EB0900A84205D142
:101DA00000984C46401CC0B2009006E008F10100CB
:101DB00000F0FF08B8F1080FD9D3761CF6B25645EB
:101DC000C7D3BDE8FF8F00009E2900089A1E0008B7
:101DD000AE2300082DE9F04704461F468020164632
:101DE0000D46A0EB5709C3F1400814E0A14502D20B
:101DF0000024E819C5B2A84503DA00242546FFF7F8
:101E0000DDFE32783B4629462046FFF78FFF04EB84
:101E10005700C4B2761C307820385E28E6D9BDE879
:101E2000F0874FF0E020016941F00401016140F2C8
:101E300007714161016941F005010161704710B509
:101E40000446FFF727FE7820FFF766FEFFF7F8FD50
:101E50000020FFF761FEFFF7F3FD2046FFF75CFE71
:101E6000FFF7EEFDBDE81040FFF734BE10B50446A5
:101E7000FFF710FE7820FFF74FFEFFF7E1FD40204F
:101E8000FFF74AFEFFF7DCFD2046FFF745FEFFF7B0
:101E9000D7FDBDE81040FFF71DBE000000000000A8
:101EA000000000000000000000003F4000000000B3
:101EB0000000000030004000300040000000090039
:101EC0000BC03D000BC03D00090018C024407FE05E
:101ED000224031800000180024C01B000D803240D9
:101EE000018003801C4027401C80074000401000F8
:101EF0006000000000000000000000000000000082
:101F00001F80204040200000402020401F80000013
:101F10000000090006001F80060009000000040000
:101F200004003F8004000400000000100060000076
:101F3000000000000000040004000400040004008D
:101F40000000000000400000000000000000002031
:101F500001C006003800400000001F8020402040E3
:101F600020401F800000000010403FC000400000E3
:101F7000000018C02140224024401840000010807A
:101F80002040244024401B80000002000D0011006E
:101F90003FC0014000003C80244024402440238076
:101FA00000001F80244024403440038000003000A3
:101FB000200027C03800200000001B80244024405F
:101FC00024401B8000001C0022C0224022401F80B1
:101FD00000000000000008400000000000000000B9
:101FE00000000460000000000000000004000A007F
:101FF0001100208040400900090009000900090083
:10200000000000004040208011000A000400180079
:10201000200023402400180000001F80204027409B
:1020200029401F400000004007C039000F0001C0D8
:10203000004020403FC0244024401B8000001F80FF
:102040002040204020403080000020403FC0204001
:1020500020401F80000020403FC024402E4030C060
:10206000000020403FC024402E00300000000F0040
:102070001080204022403380020020403FC00400F6
:1020800004003FC02040204020403FC0204020406E
:1020900000000060202020203FC0200020002040C1
:1020A0003FC024400B0030C0204020403FC02040B3
:1020B0000040004000C03FC03C0003C03C003FC0A7
:1020C000000020403FC00C4023003FC020001F8084
:1020D0002040204020401F80000020403FC024407E
:1020E0002400180000001F802140214020E01FA094
:1020F000000020403FC02440260019C0004018C006
:1021000024402440224031800000300020403FC065
:1021100020403000000020003F80004000403F8011
:10212000200020003E0001C00700380020003800D9
:1021300007C03C0007C038000000204039C006003E
:1021400039C0204000002000384007C0384020003F
:102150000000304021C02640384020C00000000070
:1021600000007FE0402040200000000070000C00D4
:102170000380004000000000402040207FE000007D
:1021800000000000200040002000000000000010BF
:1021900000100010001000100010000000004000AF
:1021A000000000000000000002800540054003C060
:1021B000004020003FC004400440038000000000B5
:1021C00003800440044006400000000003800440F7
:1021D00024403FC00040000003800540054003400C
:1021E0000000000004401FC02440244020000000E4
:1021F00002E0055005500650042020403FC0044036
:10220000040003C000400000044027C0004000005C
:10221000000000100010041027E000000000204023
:102220003FC00140070004C00440204020403FC0A0
:1022300000400040000007C0040007C0040003C0C5
:102240000000044007C00440040003C00040000038
:1022500003800440044003800000041007F0045091
:10226000044003800000000003800440045007F095
:102270000010044007C002400400040000000000F9
:1022800006400540054004C00000000004001F8017
:10229000044000400000040007800040044007C0E4
:1022A00000400400070004C001800600040006008E
:1022B00001C0070001C006000000044006C0010084
:1022C00006C0044000000410071004E0018006006E
:1022D00004000000044005C0064004400000000067
:1022E000000004007BE0402000000000000000002F
:1022F000FFF000000000000040207BE00400000030
:10230000000040008000400020002000400002103B
:102310004422284110822FFC4200120012FFFE923C
:10232000129212921292FE9212FF120000000410FA
:10233000081010103FD0EA902A902A90AAFF7F90B0
:102340002A902A902A902A902090001000000820BD
:102350000620407E318000227F12490A49FE490250
:10236000490249FE490A7F120022000200000420AF
:102370004320307E018040004FFF485248927F1238
:1023800048127F12489248924FFF400000002210EE
:102390001A600380FFFF0A803260000022002AFFDB
:1023A0002AA8FEA82AAA2AA92AFE220000000000C4
:1023B000000000000000000000000000000000001D
:1023C000000000001FCC000C000000000000000016
:1023D00008003000600008003000600000000220AB
:1023E00003FC1E20022003FC1E200220000000002F
:1023F0000E1811043FFF10840C78000000000F003D
:1024000010840F3800C00778188400780000007826
:102410000F8410C411240E9800E400840008080002
:1024200068007000000000000000000000000000D4
:102430000000000007E0181820044002000000001F
:1024400040022004181807E00000000000000240CD
:10245000024001800FF00180024002400000008035
:10246000008000800FF800800080008000000001E4
:10247000000D000E00000000000000000000000041
:1024800000800080008000800080008000800000CC
:10249000000C000C00000000000000000000000024
:1024A00000060018006001800600180020000000EF
:1024B00007F0080810041004080807F000000000E6
:1024C000080408041FFC00040004000000000000D1
:1024D0000E0C10141024104411840E0C0000000087
:1024E0000C1810041104110412880C700000000074
:1024F00000E00320042408241FFC00240000000046
:102500001F9810841104110410881070000000003E
:1025100007F00888110411041888007000000000FA
:102520001C00100010FC13001C0010000000000034
:102530000E3811441084108411440E38000000003D
:102540000700088C10441044088807F000000000C1
:1025500000000000030C030C00000000000000005D
:102560000000000101060000000000000000000063
:10257000008001400220041008081004000002201E
:10258000022002200220022002200220000000007F
:102590001004080804100220014000800000000020
:1025A0000E001200100C106C10800F00000003E0F1
:1025B0000C1813E4142417C4082807D000000004E2
:1025C000003C03C41C40074000E4001C000410044D
:1025D0001FFC1104110411040E880070000003E0B8
:1025E0000C1810041004100410081C100000100433
:1025F0001FFC100410041004080807F00000100469
:102600001FFC1104110417C4100408180000100462
:102610001FFC1104110017C010000800000003E0A7
:102620000C181004100410441C7800400000100422
:102630001FFC10840080008010841FFC1004000028
:10264000100410041FFC100410040000000000031C
:102650000001100110011FFE100010000000100406
:102660001FFC110403801464181C100400001004E3
:102670001FFC1004000400040004000C00001004FF
:102680001FFC1F0000FC1F001FFC100400001004B2
:102690001FFC0C04030000E010181FFC100007F0E2
:1026A0000808100410041004080807F000001004C3
:1026B0001FFC10841080108010800F00000007F0B5
:1026C000081810241024101C080A07F20000100437
:1026D0001FFC1104110011C011300E0C0004000089
:1026E0000E1C11041084108410441C3800001800C3
:1026F000100010041FFC100410001800000010004F
:102700001FF810040004000410041FF8100010004B
:102710001E0011E0001C007013801C0010001FC080
:10272000103C00E01F0000E0103C1FC0000010043F
:10273000180C163401C001C01634180C1004100017
:102740001C00130400FC13041C001000000008040B
:10275000101C1064108413041C04101800000000E6
:10276000000000007FFE4002400240020000000026
:1027700030000C0003800060001C0003000000001B
:102780004002400240027FFE000000000000000006
:102790000000200040004000400020000000000138
:1027A0000001000100010001000100010001000022
:1027B0004000400020000000000000000000000079
:1027C0000098012401440144014400FC000410006D
:1027D0001FFC008801040104008800700000000054
:1027E000007000880104010401040088000000005A
:1027F000007000880104010411081FFC000400009F
:1028000000F8014401440144014400C800000000F4
:10281000010401040FFC1104110411001800000050
:1028200000D601290129012901C90106000010046F
:102830001FFC008401000100010400FC00040000F2
:102840000104190419FC0004000400000000000049
:10285000000300010101190119FE0000000010042D
:102860001FFC0024004001B4010C01040000000022
:10287000100410041FFC0004000400000000010408
:1028800001FC0104010001FC0104010000FC010441
:1028900001FC008401000100010400FC00040000B0
:1028A00000F8010401040104010400F80000010122
:1028B00001FF008501040104008800700000000091
:1028C0000070008801040104010501FF00010104FA
:1028D000010401FC008401040100018000000000EB
:1028E00000CC0124012401240124019800000000EF
:1028F0000100010007F801040104000000000100CC
:1029000001F8000400040004010801FC00040100B7
:1029100001800170000C001001600180010001F0D5
:10292000010C003001C00030010C01F0010000007A
:102930000104018C00740170018C0104000001018C
:1029400001810171000E001801600180010000008A
:102950000184010C013401440184010C00000000D9
:1029600000000000000001003EFC400240020000A8
:10297000000000000000FFFF000000000000000059
:10298000400240023EFC0100000000000000000088
:102990006000800080004000400020002000000017
:1029A0000000000000000000000000000000000027
:1029B0000000000000000000000000000000000017
:1029C0000000000000000000000000000000000007
:1029D000000F80380FFE380F803800000000000024
:1029E00000000000000000000000000001000006E0
:1029F00000000C00003800003100000600000C0050
:102A0000003800003000000000000000000061807D
:102A10000067F807F9800061800061800061800034
:102A200061800067F807F980006180000000000005
:102A30000000000001C0E003E0F0063008041808C0
:102A40001FFFFE040E080787F00381E0000000006E
:102A5000000001F000060C00040408060C7001F9E7
:102A6000C0000E00003BE000EC18070808040C183A
:102A70000003E00000000001E00007F003F8180484
:102A80001C0804170807E1D003C0E00023B0003C95
:102A900008002008000010000000000000010000F5
:102AA0003100003200001C000000000000000000A7
:102AB0000000000000000000000000000000000016
:102AC00000000000000000000000000000007F0087
:102AD00001FFC00780F00C00181000042000020065
:102AE00000000000002000021000040C0018078005
:102AF000F001FFC0007F00000000000000000000A7
:102B0000000000000000000000004200006600001D
:102B10006600003C0000180003FFC0001800003CE5
:102B2000000066000066000042000000000008008F
:102B300000080000080000080000080001FFC000B5
:102B4000080000080000080000080000080000005D
:102B50000000000100003100003200001C000000F5
:102B60000000000000000000000000000000000065
:102B70000000000000000800000800000800000835
:102B8000000008000008000008000008000008001D
:102B900000080000000000000000000000003800F5
:102BA00000380000380000000000000000000000B5
:102BB000000000000000000000000000000000060F
:102BC00000001C000070000180000E0000380000B2
:102BD000C0000700001C00003000000000000000E2
:102BE00000007F8001FFE0038070060018040008E9
:102BF00004000806001803807001FFE0007F8000D9
:102C000000000000000000000100080100080100B1
:102C10000803FFF807FFF80000080000080000089C
:102C200000000000000000000001C03802C058048D
:102C30000098040118040218040418061C1803F86C
:102C40001801E0F800000000000000000001C0E0F2
:102C500003C0F00400080408080408080618080364
:102C6000F41801E7F00001E000000000000000009F
:102C700000000300000D0000110000610000810849
:102C800003010807FFF80FFFF80001080001080022
:102C900000000000000000E007FCD0060808061055
:102CA00008061008061008061838060FF00607C0B8
:102CB000000000000000000000003F8001FFE00372
:102CC00084300208180410080410080410080718BB
:102CD00010030FF00007C00000000000000000001B
:102CE00003C0000700000600000600F80607F8060B
:102CF000180006E0000700000600000000000000C9
:102D00000001E1E003F7F006341004180804180885
:102D1000040C08040C0806161803F3F001C1E000C7
:102D2000000000000000F80003FC30030638040235
:102D3000080402080402080404100308F001FFC09C
:102D4000007F000000000000000000000000000004
:102D5000000000000000703800703800703800007B
:102D60000000000000000000000000000000000063
:102D700000000000000000000000301A00301C00BD
:102D80000000000000000000000000000000000043
:102D900000000000000800001400002200004100B4
:102DA000008080010040020020040010080008009C
:102DB000000000000000210000210000210000218F
:102DC000000021000021000021000021000021005E
:102DD00000210000000000000000000008000804BE
:102DE000001002002001004000808000410000220D
:102DF0000000140000080000000000000003C000F4
:102E000004C000040000080038080F38080838081B
:102E100010000C300007E00003C0000000000000BC
:102E200000003F8000FFE0038070020F10067088F2
:102E300004C088048308047F8802C0900301200036
:102E4000FE400000080000180001F8003E0801C222
:102E50000007020007E20000FE00001FC80001F8A2
:102E600000003800000804000807FFF807FFF80416
:102E7000080804080804080804080806180803F4E9
:102E80001801E7F00001E0000000000000003F80B2
:102E900001FFE00380700200180400080400080429
:102EA00000080400100600200780C0000000040095
:102EB0000807FFF807FFF8040008040008040008EA
:102EC00004001802001003807001FFE0007F800002
:102ED000000004000807FFF807FFF80408080408CA
:102EE00008040808040808043E080400080600183E
:102EF00001006000000004000807FFF807FFF80465
:102F00000808040800040800040800043E00060045
:102F100000060000018000000000000000003F806B
:102F200001FFE00380700600180400080402080492
:102F300002080203F00783F0000200000200040010
:102F40000807FFF807FFF804080800080000080059
:102F500000080000080004080807FFF807FFF8044D
:102F6000000800000000000004000804000804003D
:102F70000807FFF807FFF804000804000804000829
:102F80000000000000000000000000060000070034
:102F9000000104000104000104000307FFFE07FF15
:102FA000FC04000004000004000004000807FFF80F
:102FB00007FFF8040C08001800003E0004C7800555
:102FC00003C80600F80400380400180000080400D4
:102FD0000807FFF807FFF8040008000008000008D1
:102FE0000000080000080000080000180000600051
:102FF000000004000807FFF807800807FC00007FB6
:10300000C00003F80007C000780007800807FFF839
:1030100007FFF804000804000807FFF8070008038A
:10302000C00000E000003800001E000007000001A2
:10303000C00400F007FFF8040000000000007F80DB
:1030400001FFE00380700600180400080400080671
:10305000001803003001FFE0007F80000000040042
:103060000807FFF807FFF80404080404000404003C
:10307000040400040400060C0003F80001F0000042
:103080000000000000007F8001FFE0038070060068
:10309000880400880400C806003C03003E01FFE6E7
:1030A000007F8400000004000807FFF807FFF80411
:1030B0000808040800040C00040F00040BC00610EC
:1030C000F003F03801E00800000800000001E0F81B
:1030D00003F030063010041808041808040C080423
:1030E0000C080206180207F00781E00000000180CA
:1030F0000006000004000004000004000807FFF8B8
:1031000007FFF804000804000004000006000001A6
:10311000800004000007FFE007FFF0040018000033
:103120000800000800000800000800000804001063
:1031300007FFE004000004000006000007E00007AD
:10314000FE00041FE00001F80000380001E0043E2A
:103150000007C00006000004000004000007E000B3
:1031600007FFC0041FF80007C007F80007FF80042E
:103170003FF80007C004F80007000004000000004A
:103180000004000806001807C07805F1C8003E00DA
:10319000001F800463E80780F80600180400080098
:1031A000000004000006000007800007E008047C1F
:1031B00008001FF80007F800180804E008070000DE
:1031C00006000004000000000001000806003804AA
:1031D00000F80403E8040F08047C0805F00807C0A1
:1031E0000807001804006000000000000000000054
:1031F0000000000000000000003FFFFE2000022051
:103200000002200002200002200002000000000056
:103210000000000008000007000000C000003800A7
:103220000006000001C000003000000E0000010098
:10323000000000000000000020000220000220002A
:10324000022000022000023FFFFE000000000000FC
:103250000000000000000000000000000000000866
:1032600000001000003000002000003000001000BE
:103270000008000000000000000000000100000144
:103280000000010000010000010000010000010039
:103290000001000001000001000001000001000029
:1032A00000000000000000200000200000100000CE
:1032B00010000000000000000000000000000000FE
:1032C00000000000000000F00019F8001B180022A8
:1032D00008002608002408002410003FF8001FF80A
:1032E00000000800001800000004000007FFF80FAD
:1032F000FFF0001818001008002008002008003017
:1033000018001FF0000FC00000000000000007C000
:10331000001FF000183000200800200800200800DE
:103320003C08001C100000600000000000000000CD
:10333000000007C0001FF000381800200800200817
:1033400000200804101007FFF80FFFF00000100025
:1033500000000000000000000007C0001FF0001285
:1033600030002218002208002208003208001E1037
:10337000000E2000000000000000200000200800D7
:10338000200801FFF803FFF80620080420080420A5
:103390000807200003000000000000000000000EED
:1033A000000E6E001FF30031B10020B10020B1000B
:1033B0003191001F13002E1E00200E00300000006F
:1033C0000004000807FFF80FFFF8001008002000B5
:1033D000002000002008003FF8001FF8000008004F
:1033E000000000000000000000200800200800206D
:1033F00008063FF8063FF800000800000800000833
:1034000000000000000000000000000000000300B9
:103410000003002001002001002003063FFE063FBC
:10342000FC00000000000000000000000004000894
:1034300007FFF80FFFF8000188000300002FC0000D
:1034400038F80020380020080000080000000000C4
:103450000000000004000804000804000807FFF84A
:103460000FFFF8000008000008000008000000003E
:103470000000002008003FF8003FF800100800207E
:1034800000003FF8003FF8001008002000003FF85F
:10349000003FF8000008000000002008003FF8008E
:1034A0003FF8001008001000002000002008003F36
:1034B000F8001FF80000080000000000000007C02E
:1034C000000FF0001830003008002008002008002D
:1034D0003008001830000FF00007C00000000000A6
:1034E00000002001003FFF003FFF001011002009F5
:1034F000002008002008003038001FF0000FC00036
:1035000000000000000007C0001FF0003818002075
:1035100008002008002009001011001FFF003FFFD5
:103520000000010000000020080020080020080022
:103530003FF8003FF80008080010080020080020AD
:10354000000030000030000000000000000000001B
:10355000000C78001E180033080023080021080022
:1035600021880021980030F0003860000000000041
:103570000000200000200000200000FFF003FFF802
:103580000020080020080020080000300000000093
:103590000000000000002000003FF0007FF8000065
:1035A00018000008000008002010003FF8007FF01D
:1035B00000001000000000000000200000300000AB
:1035C0003C00003F800023F00000780000700023E2
:1035D00080003C00003000002000002000003C0083
:1035E000003FE00023F80000E0002700003E00005C
:1035F0003FE00021F80001E0003E00002000000054
:1036000000002008002008003838003E68002780AD
:103610000003C8002CF800383800201800200800EB
:103620000000000000002000003003003C01003FCB
:10363000830023EC000070002380003C0000200089
:10364000002000000000000000000000003808001A
:1036500020380020F80023E8002F88003E080038BA
:1036600008002018000070000000000000000000AA
:103670000000000000000000000008000014001F0F
:10368000F7FC3000062000020000000000000000EF
:10369000000000000000000000000000000000002A
:1036A000FFFFFF000000000000000000000000001D
:1036B00000000000000000002000023000061FF79C
:1036C000FC001400000800000000000000000000E2
:1036D0000000000000000000001800006000004032
:1036E000000040000020000010000008000004005E
:1036F000000400000C0000100000000000000000AA
:10370000000001020304060708090000000001028E
:1037100003040000343700080000002014000000FB
:10372000DA1900084837000814000020BC0800001F
:10373000EA1900080000000001000000100000006D
:08374000000000000024F40069
:0400000508000131BD
:00000001FF
